:020000040800F2
:100000000000022069060008650600087D48000817
:100010006506000865060008650600080000000087
:10002000000000000000000000000000650600085D
:100030006506000800000000650600080148000889
:1000400065060008650600086506000865060008E4
:1000500065060008650600086506000865060008D4
:1000600065060008650600086506000809440008E2
:1000700015440008B1340008214400082D4400084C
:10008000650600083939000865060008650600089D
:100090006506000865060008650600086506000894
:1000A0006506000865060008650600086506000884
:1000B0006506000865060008650600086D39000839
:1000C000650600087939000865060008DDCD0008DE
:1000D0006506000865060008650600086506000854
:1000E00065060008650600080000000065060008B7
:1000F000650600086506000865060008E9CD0008E9
:100100006506000865060008650600086506000823
:100110006506000865060008650600086506000813
:100120006506000865060008650600086506000803
:1001300065060008650600086506000865060008F3
:1001400000000000000000000000000000000000AF
:1001500065060008650600086506000865060008D3
:100160008539000865060008114800083548000870
:10017000650600085948000865060008650600087D
:1001800065060008650600086506000865060008A3
:100190006506000865060008650600086506000893
:1001A0006506000865060008650600086506000883
:1001B0002941000865060008650600086506000874
:1001C0006506000865060008650600086506000863
:1001D0006506000865060008650600086506000853
:1001E0006506000865060008650600086506000843
:1001F0006506000865060008650600086506000833
:100200006506000865060008650600086506000822
:100210006506000865060008650600086506000812
:100220006506000865060008650600080000000075
:100230006506000865060008000000006506000865
:1002400065060008650600086506000865060008E2
:1002500065060008650600086506000865060008D2
:1002600065060008650600086506000865060008C2
:100270006506000865060008650600080000000025
:100280006506000865060008650600080000000015
:080290000000000065060008F3
:1002980010B5054C237833B9044B13B10448AFF3B8
:1002A80000800123237010BDC80100240000000055
:1002B80090F7000808B5034B1BB103490348AFF397
:1002C800008008BD00000000CC01002490F7000861
:1002D80010F8012B11F8013B012A28BF9A42F7D0E8
:1002E800D01A704781F0004102E000BF83F000435C
:1002F80030B54FEA41044FEA430594EA050F08BFB9
:1003080090EA020F1FBF54EA000C55EA020C7FEA7C
:10031800645C7FEA655C00F0E2804FEA5454D4EBF9
:100328005555B8BF6D420CDD2C4480EA020281EAC3
:10033800030382EA000083EA010180EA020281EAFB
:100348000303362D88BF30BD11F0004F4FEA01314D
:100358004FF4801C4CEA113102D0404261EB41015C
:1003680013F0004F4FEA03334CEA133302D05242E2
:1003780063EB430394EA050F00F0A780A4F101049E
:10038800D5F1200E0DDB02FA0EFC22FA05F28018D8
:1003980041F1000103FA0EF2801843FA05F35941BE
:1003A8000EE0A5F120050EF1200E012A03FA0EFC3D
:1003B80028BF4CF0020C43FA05F3C01851EBE37167
:1003C80001F0004507D54FF0000EDCF1000C7EEB84
:1003D80000006EEB0101B1F5801F1BD3B1F5001FC2
:1003E8000CD349085FEA30004FEA3C0C04F10104E1
:1003F8004FEA445212F5800F80F09A80BCF1004F0A
:1004080008BF5FEA500C50F1000041EB045141EA8B
:10041800050130BD5FEA4C0C404141EB0101013C54
:1004280028BFB1F5801FE9D291F0000F04BF014643
:100438000020B1FA81F308BF2033A3F10B03B3F115
:1004480020020CDA0C3208DD02F1140CC2F10C02A5
:1004580001FA0CF021FA02F10CE002F11402D8BF03
:10046800C2F1200C01FA02F120FA0CFCDCBF41EACF
:100478000C019040E41AA2BF01EB0451294330BD9E
:100488006FEA04041F3C1CDA0C340EDC04F114047B
:10049800C4F1200220FA04F001FA02F340EA030052
:1004A80021FA04F345EA030130BDC4F10C04C4F198
:1004B800200220FA02F001FA04F340EA0300294678
:1004C80030BD21FA04F0294630BD94F0000F83F4C2
:1004D800801306BF81F480110134013D4EE77FEAA5
:1004E800645C18BF7FEA655C29D094EA050F08BFF1
:1004F80090EA020F05D054EA000C04BF19461046D2
:1005080030BD91EA030F1EBF0021002030BD5FEA15
:10051800545C05D14000494128BF41F0004130BD3D
:1005280014F580043CBF01F5801130BD01F0004591
:1005380045F0FE4141F470014FF0000030BD7FEA04
:10054800645C1ABF194610467FEA655C1CBF0B46FF
:10055800024650EA013406BF52EA033591EA030F16
:1005680041F4002130BD00BF90F0000F04BF00210E
:10057800704730B54FF4806404F132044FF0000541
:100588004FF0000150E700BF90F0000F04BF0021BA
:10059800704730B54FF4806404F1320410F0004520
:1005A80048BF40424FF000013EE700BF42004FEA1B
:1005B800E2014FEA31014FEA02701FBF12F07F4398
:1005C80093F07F4F81F06051704732F07F4208BF4F
:1005D800704793F07F4F04BF41F40021704730B556
:1005E8004FF4607401F0004521F000411CE700BFA2
:1005F80050EA010208BF704730B54FF000050AE025
:1006080050EA010208BF704730B511F0004502D525
:10061800404261EB41014FF4806404F132045FEA27
:10062800915C3FF4D8AE4FF003025FEADC0C18BFD0
:1006380003325FEADC0C18BF033202EBDC02C2F1C2
:10064800200300FA03FC20FA02F001FA03FE40EA54
:100658000E0021FA02F11444BDE600BFFEE700BF18
:100668000B480C4A904203D0121A0B490EF064FD55
:100678000A480B4A904203D0121A00210EF06AFD74
:1006880004F0A8FA0EF02CFD01F0A4F9FEE700BF73
:1006980000000024C8010024B0F70008C8010024A5
:1006A800DC4E0124704700BF704700BF704700BF91
:1006B800704700BF704700BF4020704780207047D8
:1006C80049424FF480621030C9B20EF043BD00BFFA
:1006D800704700BF10B504464FF482610EF092F9DE
:1006E800204610BD2DE9F04F4FF0B00885B0054603
:1006F80000F1080700F18F0600F28F494FF47A7B6A
:100708004FF0000A297B022303AA3846CDF800B02F
:10071800A6F180048DF80CA08DF80D8003F0CAF9BD
:10072800297B022303AA3846CDF800B08DF80CA027
:100738008DF80DA003F0BEF94FF0100C297B0223B1
:1007480003AA3846CDF800B08DF80CA08DF80DC07E
:1007580003F0B0F94FF47A7014F801CF4FF0400E5F
:10076800297B0223009003AA38468DF80CE08DF807
:100778000DC003F09FF9B442ECD104F1800608F1F2
:1007880001084E455FFA88F8B8D105B0BDE8F08F8A
:100798002DE9F04F89B008AC9DF84870019104E943
:1007A8000C000B78002B00F0AB801A469DF81880DF
:1007B8009DF819300646454690460393079B0593D6
:1007C800A8F12004E3B25E2B00F29E8033685E4AF3
:1007D800DB68934240F09B808020B3882B4483429F
:1007E80000F392803368594A9B68934240F09280A4
:1007F8004020F188039A02918B18834200F3848089
:10080800002A00F0918002FB04F46FF00049059B78
:10081800A1441444B6F804B003EB4909023BCDF8EF
:10082800108003EB44030C469A4639F802CFA5B36F
:1008380004F007034FF0010EE20859460EFA03FED2
:100848000BF110034FFA8EFE03EBC21200236FEA7E
:100858000E0832440DE07F2906D83F2C04D81078C2
:1008680097B14EEA00001070013301320131AB42FA
:1008780013D00CFA03F00004EDD47F29F4D83F2CF0
:10088800F2D81078002FECD0013308EA00000132CA
:100898000131AB4202F8010CEBD1D14504F101045E
:1008A800C3D1DDF8108032680BEB05042649D36804
:1008B800A4B28B4234D18020844204D3D368224925
:1008C8008B423AD17F249368204AB480934224D142
:1008D8004020029B834206D333681C4A9B6893429C
:1008E80025D13F230293029BF380019B1878404552
:1008F80007D113F8018F0193B8F1000F7FF460AFAF
:10090800002009B0BDE8F08F4FF00008EDE7304651
:10091800984762E7304698476BE730469847D8E7EC
:10092800304698473268C7E7B6F804B0BBE73046A8
:100938009847013883B20293D5E730469847013883
:10094800326884B2BFE700BFC5060008C1060008C8
:100958002DE9F04F85B0A1F1200504AC9DF8387061
:10096800009104E90C00EBB25E2B00F2958003685D
:1009780080465D4ADB689DF8084093429DF809600F
:1009880040F094808020B8F804302344834200F378
:100998008380D8F80030554A9B68934240F088809D
:1009A8004020B8F8062093190192834274DC002E87
:1009B80000F0898006FB05F56FF00040039B964622
:1009C80028442E44B8F804A003EB4000023B03EB94
:1009D800460B30F8026FBCB30EF007034FF0010C62
:1009E8004FEADE0251460CFA03FC0AF110034FFAF3
:1009F8008CFC03EBC21200236FEA0C0942440EE0A0
:100A08007F2907D8BEF13F0F04D815789FB14CEA6B
:100A1800050515700133013201319C4214D006FAE4
:100A280003F52D04ECD47F29F4D8BEF13F0FF1D89B
:100A38001578002FEBD0013309EA050501320131A1
:100A48009C4202F8015CEAD158450EF1010EC0D172
:100A5800D8F8003054442449DA68A4B28A422DD127
:100A6800802084421CD29B68204AA8F80440934204
:100A780021D14020019B834207D3D8F800301B4A7C
:100A88009B68934229D13F230193DDE90003A8F82D
:100A9800063005B0BDE8F08F002005B0BDE8F08F46
:100AA800DA6811498A4211D17F24DCE798476AE75E
:100AB8004046984775E740469847DBE740469047E9
:100AC800D8F80030CDE7B8F804A0C1E74046904711
:100AD8000138D8F8003084B2C5E740469847013855
:100AE80083B20193D1E700BFC5060008C10600081C
:100AF8002DE9F04F89B01D46884606901046129C95
:100B080010F8013B13999DF85060009233B1002210
:100B180010F8013B0132002BFAD193B22A78687899
:100B280012FB03F302B21BB223EAE373082900F2B3
:100B3800A981DFE811F0020114012001340142010A
:100B48005001670171010900A18827880F44B4F991
:100B58000610FF1A0029BFB2C0F2FF80B4F802C025
:100B680006980CEB6104C280A4EB520283800780D4
:100B780094B24480A64AD8F8003011460192DA6847
:100B88008A4240F08D818020B84205D8DA68019900
:100B98008A4240F09A817F279E4A9B68A8F8047091
:100BA8009342039240F089814020A04207D8D8F8A8
:100BB8000030039A9B68934240F082813F24009B57
:100BC800A8F8064093F800B06B782C7804936B680B
:100BD8000793BBF1000F00F0AC80ABF12005EBB23E
:100BE8005E2B00F22E81D8F80030019ADB68934220
:100BF80040F02A818020B8F8043023449842C0F29B
:100C08002081D8F80030039A9B68934240F01F81F6
:100C18004020B8F80610049A02918B189842C0F246
:100C28001081002A00F01E8102FB05F56FF0004ECE
:100C3800079BAE441544CDF814B003EB4E0E023BAF
:100C4800B8F804A003EB45030D469B463EF8027F27
:100C5800A4B305F007034FF0010CEA0851460CFA5B
:100C680003FC0AF110034FFA8CFC03EBC2120023B9
:100C78006FEA0C0942440DE07F2906D83F2D04D8BD
:100C8800107896B14CEA000010700133013201313E
:100C98009C4213D007FA03F00004EDD47F29F4D85E
:100CA8003F2DF2D81078002EECD0013309EA00006D
:100CB800013201319C4202F8010CEBD1F34505F1F8
:100CC8000105C3D1DDF814B0D8F800200AEB0405FB
:100CD8000199D368ADB28B4240F0BF808020854235
:100CE80005D3D36801998B4240F0C5807F2593686E
:100CF800039AA8F80450934240F0AC804020029B2D
:100D0800834208D3D8F80030039A9B68934240F096
:100D1800AC803F230293029BA8F80630009A137810
:100D28005B4506D112F801BF0092BBF1000F7FF4BA
:100D380054AF069809B0BDE8F08FB4F904102788BD
:100D48000029B8BF013107EB6107B4F90610A7EB1A
:100D580063070029BFB2BFF601AF0131FEE6B4F95F
:100D680000700699B4F902400F80BFB24C80A4B25B
:100D78008B80CA80FEE6B4F9041027880029B4F9EC
:100D88000240B8BF013107EB610706998B80A7EBDA
:100D980063034C80A4B29FB2CA800F80EAE6A188A0
:100DA8002788B4F902400F4406998B80FB1A4C80BF
:100DB800A4B29FB2CA800F80DCE6E7886188394414
:100DC800B4F90070081A069984B20F808B80BFB2FC
:100DD800CA804C80CEE6B4F9041027880029B8BF31
:100DE800013107EB6107A7EB6307B4F802C0BFB294
:100DF800E488069964448B80201ACA800F8084B2E4
:100E08004C80B7E62788A1880F44FF1AEDE700BF9A
:100E1800C5060008C1060008B4F90610B4F802C0F7
:100E28000029B4F900700698B8BF0131C2800CEBF4
:100E3800610407808380BFB2A4EB520294B244805D
:100E480098E64FF0000B69E740469847D3E64046DE
:100E58009847DEE64046984751E740469847D8F815
:100E680000203CE7B8F804A02EE740469847013830
:100E780083B202934FE7404698470138D8F80020DC
:100E880085B234E7D8F800300024069A1249148055
:100E980054809480D480DA6801918A4205D027462C
:100EA80040469047D8F800306EE69B680B4AA8F891
:100EB8000440934203923FF482AE4046984774E65A
:100EC80040469847013884B279E640469047013851
:100ED800D8F8003087B25FE6C5060008C1060008EA
:100EE8007F291ED83F2A1CD86BB1D3084FF0010CBC
:100EF80002F0070201EBC3130CFA02F2C1180B7CD3
:100F08001A430A747047D3084FF0010C02F0070225
:100F180001EBC3130CFA02FCC1180A7C22EA0C028A
:100F28000A7470472DE9F04F83B05C1A0C9E002CB0
:100F38009DF83490A6EB0208B8BF6442B8F1000FE0
:100F4800B8BFC8F100088B428CBF4FF0010A4FF0C0
:100F5800FF3A9642A4EB080C51D84FF0FF357F2B8F
:100F6800019512D83F2E10D8F50806F0070E012774
:100F780003EBC5150544B9F1000F47D007FA0EF782
:100F880095F810E047EA0E072F74964201D18B427C
:100F980029D0C8F100077F2914D83F2A12D8D508CC
:100FA80002F0070B4FF0010E01EBC5150544B9F12E
:100FB800000F1BD00EFA0BFE95F810B04EEA0B0E80
:100FC80085F810E0B7EB4C0F4FEA4C0502DAACEBB2
:100FD800080C5144AC4202DD019DA4442A449942C4
:100FE800D9D19642D7D103B0BDE8F08F0EFA0BFBEA
:100FF80095F810E02EEA0B0E85F810E0E2E70125DF
:101008007F2B0195C5D83F2EAED9C2E707FA0EFE51
:101018002F7C964227EA0E072F74B8D0B9E700BF95
:101028002DE9F04F2DED068B83B01F4680460D4607
:101038009DF8503016460193139B002BC0F2218275
:10104800129A134406EE103ADDED127AB8EEC66B2A
:101058009FEDCD4BB8EEE77B9FEDCD5B27EE047B94
:1010680026EE046B87EE050B86EE05ABF7EEC08B1C
:10107800B0EE680A0DF064FD07EE907AB7EECAABE1
:10108800F8EE679AB0EE408AB0EE680A0DF054FEAA
:1010980060EE698AB0EE4A0A0DF052FDB0EE409A51
:1010A800B0EE4A0A0DF048FE20EE690A29EE888A59
:1010B80029EE899A70EE687AF0EE006A39EE487A7D
:1010C80067EEA77AE7EE077AF4EEE67AF1EE10FA21
:1010D80006D5139BB42B40F396804FF0010901E02D
:1010E8004FF00009012478424FF0000C0095E31BF3
:1010F800214627462246A340B9F1000F6AD1424251
:1011080006EE90CACCF1000107EE102AB8EEE66AA6
:1011180007EE901A06EE900AB8EEC77A139A66EEB2
:10112800084AF8EEE77AB42A27EE284AF8EEE66A83
:1011380067EE885A74EEC43A26EEA85A26EE096A73
:1011480066EE806A67EE897A27EE007AF5EEC03A95
:1011580040F3F280F1EE10FA00F17F8176EE473A23
:1011680074EEC54AF5EEC03AF1EE10FAF5EEC04A53
:10117800CCBF01220022F1EE10FA00F1778136EEA1
:10118800666A35EEC55AB5EEC06AF1EE10FAB5EEEC
:10119800C05ACCBF01210021F1EE10FA00F16F8195
:1011A80077EEE66AF5EEC06AF1EE10FACCBF0127D9
:1011B800002775EEC45AF5EEC05AF1EE10FA00F1A8
:1011C800478177EEC77AF5EEC07AF1EE10FACCBF18
:1011D80001240024002A40F08A80002964D1BFB984
:1011E800C4BB9C4558DB0CF1010C03EB4C0E1CEB0B
:1011F800000F0EF1010E00F0C08098424FDB7346DD
:1012080000287FF779AF03B0BDEC068BBDE8F08FFF
:10121800009DA6EB0C0E00EB050ABAF17F0FDFD894
:10122800BEF13F0FDCD84FEADE0B019D0AEBCB1A6B
:10123800002D00F0B1800EF0070BC2444FF0010EF4
:101248000EFA0BFE9AF810B04EEA0B0E8AF810E070
:10125800002CC6D0009DA6EB0C0EA5EB000ABAF137
:101268007F0FBED8BEF13F0FBBD84FEADE0B019D02
:101278000AEBCB1A002D00F0AE800EF0070BC2442B
:101288004FF0010E9C450EFA0BFE9AF810B04EEA8C
:101298000B0E8AF810E0A6DA98429E46AFDA0130C3
:1012A8000EEB40030133ABE7009D0CEB060E00EBA1
:1012B800050ABAF17F0F92D8BEF13F0F8FD84FEAD7
:1012C800DE0B019D0AEBCB1A002D73D00EF0070B35
:1012D800C2444FF0010E0EFA0BFE9AF810B04EEA17
:1012E8000B0E8AF810E0002F3FF47AAF90E7009DCC
:1012F8000CEB060EA5EB000ABAF17F0F3FF66DAFB7
:10130800BEF13F0F3FF669AF4FEADE0B019D0AEBD6
:10131800CB1A002D6DD00EF0070BC2444FF0010E12
:101328000EFA0BFE9AF810B04EEA0B0E8AF810E08F
:1013380000293FF454AFB7E7F1EE10FA7ED44A46DD
:1013480074EEC54AF5EEC04AF1EE10FA6CD40021ED
:1013580035EEC55AB5EEC05AF1EE10FA5AD4002748
:1013680075EEC45AF5EEC05AF1EE10FA3FF529AF02
:101378000024002A3FF431AFB9E798428FDB0023FD
:101388003BE700BFAFF300807A008BFCFA210940ED
:101398000000000000806640C2444FF0010B0EF0D0
:1013A800070E0BFA0EFE9AF810B02BEA0E0E8AF80A
:1013B80010E015E7C2444FF0010B0EF0070E0BFAD0
:1013C8000EFE9AF810B02BEA0E0E8AF810E0002FE5
:1013D8003FF406AF1CE7C2444FF0010B0EF0070EB6
:1013E8000BFA0EFE9AF810B02BEA0E0E8AF810E0EF
:1013F800F7E6C2444FF0010B0EF0070E0BFA0EFE93
:101408009AF810B02BEA0E0E8AF810E000293FF483
:10141800E6AE49E777EEE66AF5EEC06AF1EE10FA55
:10142800CCBF012700279BE736EE666AB5EEC06A97
:10143800F1EE10FACCBF0121002189E776EE473A98
:10144800F5EEC03AF1EE10FACCBF0122002277E7A0
:101458000124002A3FF4C1AE49E774EEC54A0122CF
:10146800F5EEC04AF1EE10FA7FF589AE35EEC55AB1
:101478000121B5EEC05AF1EE10FA7FF591AE0127C1
:1014880097E6DDE91223134406EE102A1293139B04
:101498005B421393D8E500BF2DE9F04F87B09DF864
:1014A8004850109C2E4601959DF844509EB3994291
:1014B8002ED89946A24228D87F29164694BF0023E1
:1014C800012308E09CF810804EEA080E8CF810E022
:1014D8000136B44219D33F2EFAD8002BF8D14FEA7F
:1014E800D60C06F0070E4FF0010801EBCC1C08FAE9
:1014F8000EFE8444002DE5D19CF810B001362BEA8D
:101508000E0AB4428CF810A0E5D201318945D1D237
:1015180007B0BDE8F08FA3EB0108B8F1000FB8BF22
:10152800C8F100089942C0F04E817F2B4FF0FF3A76
:1015380094BF002601263F2A009694BF0027012762
:101548000297A6B99FB9D60802F0070C012703EB4A
:10155800C6160644002D00F0948107FA0CF796F899
:1015680010C047EA0C073774002602960096994285
:1015780000F09781464694468E46BEF17F0F16D8F6
:10158800BCF13F0F13D84FEADC070CF0070B4FF004
:1015980001090EEBC7170744002D00F0398109FA3D
:1015A8000BF997F810B049EA0B0987F81090770003
:1015B80018BFD644B84502DD46440CF1FF3C7345DC
:1015C800DBD16245D9D100260496A4EB0209009F1D
:1015D800B9F1000FB8BFC9F100093F2C94BF00262C
:1015E8000126A242C9F100080396C0F02381002F0A
:1015F80040F05081002E40F04D814FF0FF360096AC
:10160800E60803EBC6160644002D00F01E814FF0D5
:10161800010C04F007070CFA07F796F810C047EA20
:101628000C07377400260396A24200F03D81C44699
:1016380016461F4605927F2F15D83F2E13D84FEA1E
:10164800D60E06F0070B4FF0010A07EBCE1E8644B4
:10165800002D00F0E6800AFA0BFA9EF810B04AEA6C
:101668000B0A8EF810A0B8EB4C0F4FEA4C0E02DABA
:10167800ACEB090C013FBEF1000F01D0009A1644F3
:10168800BB42D8D1B442D6D1059AA1EB030EBEF124
:10169800000FB8BFCEF1000E7F2994BF4FF0000AAB
:1016A8004FF0010A99428CBF4FF001094FF0FF3902
:1016B800BAF1000F13D1039E8EB9E60801EBC616E6
:1016C8000644002D00F0D3804FF0010C04F007070A
:1016D8000CFA07F796F810C047EA0C073774049E0F
:1016E80026BB774626467F2B14D83F2E12D84FEAC2
:1016F800D60C06F0070B4FF0010803EBCC1C844412
:10170800002D73D008FA0BF89CF810B048EA0B08C3
:101718008CF810805FEA470C18BF4B44E64501DDA2
:101728007744013E9942DED1B442DCD1A2EB040EEB
:10173800BEF1000FB8BFCEF1000EA2428CBF4FF031
:1017480001084FF0FF38CEF1000CBAF1000F0ED1AE
:10175800029B63B9D30802F00707012601EBC31304
:101768000344002D7CD0BE401F7C3E431E74019B69
:10177800002B7FF4CDAE66460B467F2B12D83F2C4C
:1017880010D8E70804F0070A4FF0010903EBC71760
:101798000744A5B309FA0AF997F810A049EA0A0913
:1017A80087F81090BCEB460F4FEA460702DAA6EB23
:1017B8000E06013B07B144449942DED1A242DCD176
:1017C80007B0BDE8F08F3F2A4FF0010A94BF00260A
:1017D80001267F2B029694BF002701270097002E31
:1017E8007FF4C8AE002F3FF4AEAEC3E608FA0BFB99
:1017F8009CF8108028EA0B088CF810808AE709FA10
:101808000AFA97F8109029EA0A0987F81090C9E7A8
:1018180009FA0BFB97F8109029EA0B0987F8109042
:10182800C5E60AFA0BFB9EF810A02AEA0B0A8EF806
:1018380010A018E797BB8EBB01260096E60803EBBD
:10184800C6160644002D7FF4E2AE012704F0070C0B
:10185800039507FA0CFC377C27EA0C073774E3E694
:1018680006FA07F71E7C26EA07061E747FE701279B
:1018780004F0070C07FA0CFC377C27EA0C073774CE
:101888002DE707FA0CFC377C029527EA0C07009530
:1018980037746CE64FF0FF360096C5E601260096D1
:1018A800C5E60126049690E601260196EDE600BFFE
:1018B800012938B5044613D0022909D001B138BD31
:1018C80090ED000A18480CF045FD84ED000A38BD7B
:1018D80090ED000A15480CF01DFE84ED000A38BD95
:1018E800134A144990685368134D0344D2ED006AB3
:1018F800581CA1FB03ECA1FB00E14FEADC3CC90B3F
:1019080005FB1C3305FB110102EB830302EB81028B
:10191800D3ED037A92ED037A37EE677AE7EE267A0B
:10192800C4ED007A38BD00BF20020024A82F01248E
:10193800000000C073B2E745C0D40100002A43D0BC
:101948002DE9F04F80468A46174600262DED028B7A
:1019580083B0D8F800304FEA860B1C4D002403EB07
:1019680086031B4A93ED008A02EB860915F8013BB2
:101978008DED018A43B90134032C1DD015F8013BC4
:101988009DED018A002BF6D0E1B201A8FFF790FF88
:10199800F7EE007A99ED007A0134DDED016A77EE11
:1019A800C77ADAF80030032C5B4467EE887AE7EEF2
:1019B800267AC3ED007AE1D10136B742C9D103B026
:1019C800BDEC028BBDE8F08F704700BF2C340124BA
:1019D8002034012430B500213B48002401252DED99
:1019E800028B95B000F086F90421374800F0FEF824
:1019F8000321354800F0DAF8334800F0F3F83348AB
:101A0800B0EE408A0CF030FC314A214631480DF0E6
:101A1800A1FB314BB0EE480A3048C3E901450CF050
:101A280033FD032000F0A8F803460FA8ADF80030F6
:101A3800009901F0FBFA042000F09EF803460FA875
:101A4800ADF80430019901F0F1FA022204230FA93C
:101A5800234801F0F9FA0F2000F08EF803469FEDB5
:101A6800210A06A8ADF80830029901F0CBFA0E2039
:101A780000F082F803469FED1B0A09A8ADF80C3068
:101A8800039901F0BFFA0D2000F076F803469FEDA8
:101A9800150A0CA8ADF81030049901F0B3FA11201A
:101AA80000F06AF8034605A88DF81650ADF8143012
:101AB8008DF8175001F0FEFC0B4B0C4902481C80B6
:101AC8009C7000F06FF8FEE7E40100242002002477
:101AD800005307000C0000C0000000C0A82F01241C
:101AE800FC01002400007A442C3401244519000824
:101AF80010B513480024134A134904604461046272
:101B08000CF008FF0F4A114911480CF003FF0D4A69
:101B1800104911480CF0FEFE0A4A104910480CF012
:101B2800F9FE084A0F4910480CF0F4FE0F48104B14
:101B38008460044A0F490360BDE810400CF0EABE17
:101B4800E401002400000024B1060008B5060008DE
:101B580020020024D9060008000000C0B9060008C9
:101B6800A82F0124AD060008D82F01241030012425
:101B780050F30008BD0600081F2882B009D8084B9A
:101B880003EB400213F81030507843EA002002B00B
:101B9800704701230C2043EA002002B0704700BFC1
:101BA80084F30008143001F003BA00BF38B500F11F
:101BB800140504462DED028B284601F0B5F9284698
:101BC80001F0AEF92846B0EE408A01F097F9D0ED61
:101BD800007AF8EE677A88EE277ABDEC028B84EDFE
:101BE8000E7A38BD143001F09BB900BF38B500F14A
:101BF800140504462DED028B284601F083F928468A
:101C080001F08EF92846B0EE408A01F077F9D0ED60
:101C1800007AF8EE677A88EE277ABDEC028B84EDBD
:101C28000E7A38BDF0B5032399B000270125129329
:101C380006462C4B09A81595CDE90E7340F20453BE
:101C4800ADF84030284BCDE91357099301F032FC29
:101C580009A801F00BFD002835D1244B04AF044638
:101C68000090CDF842301023394604958DF8203085
:101C78001F4BCDE91650CDE906506846059301F093
:101C880083FE0823009A01A909A8ADF804508DF82D
:101C9800064009940295039300F0E4F800230EA986
:101CA80038463024049302F037FC03224FF07E5369
:101CB80009A906F114000B93CDE90942049A01F031
:101CC800EBF819B0F0BD40F60132084B169704AF97
:101CD800ADF824200998CDF84230179500F082F825
:101CE800DCE700BF04020404030300010406040344
:101CF8000704010B2DE9F04304462DED028B83B058
:101D0800002948D0012140F2011200230091ADF8CA
:101D180004208DF80630304A0126304B271D304903
:101D280004F12908626040F20272A36040F606637B
:101D3800E16004F125092682A4F8252084F82760AB
:101D4800A4F8293084F82B6002F0FAFE69460546AB
:101D580048B304F130008DF8066002F059FE072DF3
:101D680034D104F114052046FFF75CFF284601F042
:101D7800D7F82846B0EE408A01F0C0F8D0ED007AD6
:101D8800F8EE677A88EE277A84ED0E7A03B0BDEC18
:101D9800028BBDE8F08340F2011300918DF8061024
:101DA800ADF80430B7E704F1300002F031FE3946EF
:101DB800204602F031F8484601F07CFB404601F02D
:101DC80079FB04F1120000F077F9CAE7394620469A
:101DD80002F022F8C5E700BF050805090507050652
:101DE800050A060610B584B003460124ADF80400C0
:101DF80003A8ADF80C30ADF80E4001F05BFB2146AE
:101E080003A801F041FC204602F036FD002103A89A
:101E180001F03AFC204602F02FFD214603A801F00C
:101E280033FC04B010BD00BF10B5C2F3002384B06A
:101E38000C46017C8DF80D2043EA4402FA24022363
:101E48008DF80C2003AA009401F034FE18B1012487
:101E5800204604B010BD04460A2002F00DFD2046BD
:101E680004B010BD034670B543F8042B044684B093
:101E780007C983E80700A37983B91A210B461E22F4
:101E8800FA2523742046ADF80C20022303AA0095F6
:101E980001F010FE28B1012004B070BD1B210B46D3
:101EA800EDE70A2002F0E8FC4FF4B852009502234F
:101EB800ADF80C20204603AA217C01F0FBFD002888
:101EC800E9D10A2002F0D8FC41F2027200950223FF
:101ED800ADF80C20204603AA217C01F0EBFD002878
:101EE800D9D10A2002F0C8FC042200950223ADF8DB
:101EF8000C20204603AA217C01F0DCFD0028CAD171
:101F08000A2002F0B9FC062200950223ADF80C2045
:101F1800204603AA217C01F0CDFD0028BBD10A2070
:101F280002F0AAFC41F2082200950223ADF80C2029
:101F3800204603AA217C01F0BDFD0028ABD10A2070
:101F4800064602F099FC0095022303AA217C20464C
:101F5800ADF80C6001F0AEFD00289CD1304602F0CF
:101F68008BFC009522790C232046002A8DF80C3032
:101F780003AA4FF0020314BF622142218DF80D100D
:101F8800217C01F097FD002885D1304602F074FCD1
:101F98002279D4E902310B43DBB20AB943F040039A
:101FA80062790AB143F020030E22FA258DF80D302C
:101FB8002046009502238DF80C2003AA217C01F00D
:101FC80079FD00287FF467AF0A2002F055FC102243
:101FD80000950223ADF80C20204603AA217C01F0CD
:101FE80069FD00287FF457AF0A2002F045FC122152
:101FF80000950223ADF80C1003AA217C204601F0BD
:1020080059FD00287FF447AF0A2002F035FC012271
:1020180009212046FFF708FF003818BF01203BE7D9
:10202800F0B5102387B0234C012200250126002794
:1020380002A920460195CDE902234FF48052CDE94B
:10204800046709F055F9642003F020F802A94FF459
:1020580080522046CDE9046702261027CDE90267A1
:1020680009F046F90322102302A92046CDE90223EC
:1020780000230422CDE904234FF4805209F038F9F3
:1020880040F23223042202A9019310232046CDE90D
:102098000223019A012305924FF48052049309F018
:1020A80027F940F60601204609F042F9284607B00C
:1020B800F0BD00BF383401241C4B00221C494FF0EE
:1020C800400C30B5054689B00220596007219A6056
:1020D8001A620124DA620A224FF4006EDC6006926A
:1020E8002022CDE9000104200821CDE902010320C6
:1020F8001021CDE9040108206946C3E904024FF420
:10210800C072181DC3E906C24FF48052C3E909E240
:1021180009F0C4F838B92846FFF782FF003818BF1D
:10212800012009B030BD204609B030BD3434012447
:1021380040410052614A0021D0B513688EB00A911F
:10214800002B40F0B9805E4B01214FF683700C24C0
:1021580011600221D3F8D4200026032742F48052CC
:10216800C3F8D420D3F8D42002F480520092009A05
:10217800D3F8E02042F01002C3F8E020D3F8E020C2
:1021880002F010020192019AD3F8E02042F04002D6
:10219800C3F8E020D3F8E02002F040020292029A4D
:1021A800D3F8E02042F00802C3F8E020D3F8E0209A
:1021B80002F008020392039AD3F8E02042F48072F6
:1021C800C3F8E020D3F8E02002F480720492049A65
:1021D800D3F8E02042F08002C3F8E020D3F8E020F2
:1021E80002F080020592059AD3F8E02042F020021E
:1021F800C3F8E020D3F8E02002F020020692069A05
:10220800D3F8E02042F00402C3F8E020D3F8E0302D
:102218000C9403F0040307930323079A0B93CDE967
:10222800080108A9274804F005FC48F237120223E0
:1022380008A925480C94CDE90823CDE90A6704F0DC
:10224800F9FB4CF20372022308A920480C94CDE94B
:102258000823CDE90A6704F0EDFB40F2FF62022390
:1022680008A91B480C94CDE90823CDE90A6704F0B6
:10227800E1FB4FF60C72022308A916480C94CDE92D
:102288000823CDE90A6704F0D5FB4FF63F02022385
:1022980008A911480C94CDE90823CDE90A6704F090
:1022A800C9FB2022022308A90A480C94CDE90A6731
:1022B800CDE9082304F0BEFB0EB0D0BD30340124B4
:1022C800004402580010025800180258000C025826
:1022D80000200258001C0258001402582DE9F04F43
:1022E800DFF8108406460D46144608F114002DED5B
:1022F800028B89B000AF02F007FAD8F8143073B334
:10230800D8F81830D8F80490002B43690BBF4FF069
:10231800080A4FF0100A4FF0020B4FF0040BB9F106
:10232800000F2AD0A200EA46012B02F1070222F090
:102338000702ADEB020D6846ADEB020D694600F0F1
:102348003F81022B00F0D680002B6FD02246C84771
:10235800D5462437BD46BDEC028BBDE8F08FD8F8D2
:102368001830002BF5D0D8F804904FF0080A4FF039
:10237800020B4369B9F1000FD4D1FB61D8F80030E2
:10238800BB61002BE5D0D54802F030FA6B46BBF1B3
:10239800020F786108EE103AFB6900F083816A4603
:1023A8005146A2EBC40295466200EA46B2FBFBF234
:1023B800AAEBC40085460AEB8200EE46F861ADEB55
:1023C800010DF8690EEB820CC7F810C0EC46ADEBB6
:1023D800010D00EB8201CCF80400CCF8081001EBE9
:1023E80082013869E946CCF80C1000EB8201CCF880
:1023F80000A001EB8202C9E900E0C9E90212012B41
:1024080000F06483022B00F06C82002B00F08081C6
:10241800620849466046BB69984718EE103A243767
:102428009D46BD46BDEC028BBDE8F08F002C8DD0DB
:102438001A46D8ED0B6A9FEDB27A8446331D36F9F9
:1024480022E00CF1080C07EE90EA33F922E00232A0
:10245800F8EEE77A944267EE877A67EEA67A4CED53
:10246800027A07EE90EAF8EEE77A67EE877A67EE87
:10247800A67A4CED017AE2D8F9612246C847984E0F
:10248800D8ED046A0020F9692B1D9FED9E7A9FED17
:102498009E6ADFED9E5A22E0F4EEC67AF1EE10FA5B
:1024A800C0F2C88447F6FE72D1ED017A45F82020C3
:1024B80066EEA77AF4EEC77AF1EE10FA40F2F080F1
:1024C800F4EEC67AF1EE10FAC0F2D58447F6FE7241
:1024D80043F820200230083184427FF639AFD1ED2D
:1024E800007A66EEA77AF4EEC77AF1EE10FAD3D83E
:1024F8003246D9E7002C3FF429AFD8ED0B6A844661
:102508009FED787A0022331D8E4656F822100CF182
:10251800080C07EE901A53F822100232F8EEE77A08
:10252800944267EE877A67EEA67A4CED027A07EE58
:10253800901AF8EEE77A67EE877A67EEA67A4CED9E
:10254800017AE2D871462246C7F81CE0C847664EB1
:10255800D8ED046A0020F9692B1D9FED6A7A9FED7A
:102568006A6ADFF894C120E0F4EEC67AF1EE10FA58
:10257800C0F279843246D1ED017A45F8202066EE22
:10258800A77AF4EEC77AF1EE10FA40F28780F4EEFB
:10259800C67AF1EE10FAC0F25E84324643F8202083
:1025A8000230083184427FF6D3AED1ED007A66EE70
:1025B800A77AF4EEC77AF1EE10FAD5D86246DAE7D0
:1025C800002C3FF4C3AED8ED0B6A86469FED477AE0
:1025D8004FF0000C331D56F82C200EF1080E82F433
:1025E8000002A2F5000207EE902A53F82C200CF105
:1025F800020CF8EEE77A82F400026445A2F50002C4
:1026080067EE877A67EEA67A4EED027A07EE902A91
:10261800F8EEE77A67EE877A67EEA67A4EED017AEA
:10262800D9D8F9612246C847314ED8ED046A00204E
:10263800F9692B1D9FED337A9FED336ADFF8BCC033
:102648001FE0F4EEC67AF1EE10FAC0F2FC833246CF
:10265800D1ED017A45F8202066EEA77AF4EEC77A24
:10266800F1EE10FA18D9F4EEC67AF1EE10FAC0F2CB
:10267800DA83324643F820200230083184427FF65C
:1026880067AED1ED007A66EEA77AF4EEC77AF1EE7E
:1026980010FAD6D86246DBE76246EBE762467DE78A
:1026A800324615E7A100D6466208073121F0070136
:1026B800ADEB010DEA46ADEB010D6946ADEB0E0D34
:1026C8000AEB8200EC46ADEB0E0D01EB8202F861DD
:1026D800E946CCE900A0C9E9001290E68434012457
:1026E8000280FFFF000000300082FF7F00000034FE
:1026F80082FF7F006C340124007E00807E0080FF12
:102708000000003804FF7FBF04FF7F3F00FEFF4644
:10271800002C00F0C982BBF1020FD8F8202000F08D
:10272800FA827969C7F8049002EB810E5FED0C5AC2
:102738008A00DCF808100EF104007A611A46DCF809
:102748000C303B61331DD7F810903D61FD69C7E936
:1027580002CB8C46834636F92210D8ED0B7A06EE6A
:10276800101A33F9221006EE901A3EF92210B8EE2C
:10277800C66A07EE101AF8EEE66A3BF92210B8EEC0
:10278800C77A26EE256A66EEA56A27EE257A26EE32
:10279800276A66EEA76A27EE277A07EE901A51088D
:1027A8000232F8EEE77A0AEB8100944280ED006A83
:1027B80005EB810067EEA57AC0ED006A0CEB81009D
:1027C80009EB810180ED007A98ED0B7A67EE877A44
:1027D800C1ED007ABFD8D7F804903D69D7E902CB9C
:1027E80060466208BB6949469847D8F828307A6934
:1027F800D8ED046A1A441FED3D7A1FED3D6A2B1D82
:10280800904602F1040A5FED3F5A0022A84ED9E92A
:1028180000EC51E0F4EEC67AF1EE10FAC0F2C7828D
:1028280047F6FE7045F822000CEB0100D0ED007A67
:1028380066EEA77AF4EEC77AF1EE10FA4BD9F4EE09
:10284800C67AF1EE10FAC0F2BA8247F6FE70BBF112
:10285800020F43F822002BD0D9F808000844D0ED25
:10286800007A66EEA77AF4EEC77AF1EE10FA36D956
:10287800F4EEC67AF1EE10FAC0F2CD8247F6FE7099
:1028880048F82200D9F80C000144D1ED007A66EE30
:10289800A77AF4EEC77AF1EE10FA1ED9F4EEC67AEA
:1028A800F1EE10FAC0F2AF8247F6FE714AF8221034
:1028B800023294427FF6B1AD51080EEB81008900D7
:1028C800D0ED007A66EEA77AF4EEC77AF1EE10FA48
:1028D800A0D83046A6E73046B9E73146E6E73046A5
:1028E800CEE7002C00F0E081BBF1020FD8F82030D1
:1028F80000F0E1817A69DCF8081003EB820EC7F872
:1029080004909300DFED6B5A0EF1040000227B6106
:10291800DCF80C303B61331DD7F810903D61FD6940
:10292800C7E902CB8C46834656F82210D8ED0B7ABD
:1029380007EE101A53F82210B8EEC76A07EE101AFD
:102948005EF82210F8EEC76A07EE101A26EE256A1E
:102958005BF82210B8EEC77A66EEA56A26EE276AFB
:1029680027EE257A66EEA76A27EE277A07EE901AF1
:1029780051080232F8EEE77A0AEB8100944280EDC2
:10298800006A05EB810067EEA57AC0ED006A0CEBE2
:10299800810009EB810180ED007A98ED0B7A67EEF2
:1029A800877AC1ED007ABFD8D7F804903D69D7E996
:1029B80002CB60466208BB6949469847D8F8283078
:1029C8007A69D8ED046A1A449FED3E7A9FED3E6A13
:1029D800131D9246DFF8E4C00022FB612B1D364E22
:1029E800D9E9008E4EE0F4EEC67AF1EE10FAC0F2A4
:1029F800FC81304645F822000EEB0100D0ED007A4C
:102A080066EEA77AF4EEC77AF1EE10FA49D9F4EE39
:102A1800C67AF1EE10FAC0F2EF813046BBF1020F30
:102A280043F822002AD0D9F808000844D0ED007AEB
:102A380066EEA77AF4EEC77AF1EE10FA35D9F4EE1D
:102A4800C67AF1EE10FAC0F2C98130464AF822007F
:102A5800D9F80C000144D1ED007A66EEA77AF4EEBD
:102A6800C77AF1EE10FA1ED9F4EEC67AF1EE10FA32
:102A7800C0F2AD813146F86940F822100232944222
:102A88007FF6CBAC510808EB81008900D0ED007AC5
:102A980066EEA77AF4EEC77AF1EE10FAA3D860468C
:102AA800A8E76046BAE76146E5E76046CEE700BFBB
:102AB8000280FFFF000000300082FF7F007E008060
:102AC8000000003404FF7FBF04FF7F3F002C00F0AC
:102AD800EB807A690021D8F82030C7F8109003EB12
:102AE800820ED7F81C909300FD610EF104021FEDD1
:102AF8000C6A7B61331D154656F821204808D8ED2D
:102B08000B6ABBF1020F82F40002A2F5000207EE85
:102B1800902A53F8212082F40002B8EEE77AA2F551
:102B2800000227EE067A07EE902A0AEB8002F8EEFA
:102B3800E77A27EE267A67EE867A82ED007A09EB45
:102B480080024FEA800067EEA67AC2ED007A27D0AD
:102B58005EF8212082F40002A2F5000207EE902A16
:102B680055F8212082F40002B8EEE77AA2F50002B7
:102B780027EE067A07EE902ADCF80820F8EEE77AC6
:102B8800024427EE267A67EE867A82ED007A98ED7F
:102B98000B7ADCF80C2067EE877A0244C2ED007AE3
:102BA80002318C42A8D8D7F8109060466208BB69F9
:102BB8004946FD699847D8F828307A69D8ED046AFB
:102BC8001A441FED407A1FED406A131D9246DFF844
:102BD800C4C20022FB612B1DAB4ED9E9008E4EE02A
:102BE800F4EEC67AF1EE10FAC0F2C580304645F828
:102BF80022000EEB0100D0ED007A66EEA77AF4EE23
:102C0800C77AF1EE10FA49D9F4EEC67AF1EE10FA65
:102C1800C0F2BF803046BBF1020F43F822002AD031
:102C2800D9F808000844D0ED007A66EEA77AF4EEE9
:102C3800C77AF1EE10FA35D9F4EEC67AF1EE10FA49
:102C4800C0F2AE8030464AF82200D9F80C000144A0
:102C5800D1ED007A66EEA77AF4EEC77AF1EE10FAB3
:102C68001ED9F4EEC67AF1EE10FAC0F28B80314626
:102C7800F86940F82210023294427FF6CEAB510830
:102C880008EB81008900D0ED007A66EEA77AF4EEB1
:102C9800C77AF1EE10FAA3D86046A8E76046BAE70B
:102CA8006146E5E76046CEE7224649466046BB698D
:102CB8009847FFF7B2BBC7F810B0002298ED0B6A2F
:102CC800331DDFED726AD7F81CB0786956F8221008
:102CD80007EE901A53F82210B8EEE77A07EE901A2A
:102CE80051080232F8EEE77A27EE267A0AEB810ECF
:102CF80094420BEB810167EEA67A27EE067A67EE1F
:102D0800867A8EED007AC1ED007ADFD88300D7F895
:102D180010B07B614DE61A46C7F810B098ED0B6A03
:102D2800331DDFED5B6AD7F81CB0786936F92210DD
:102D380007EE101A33F9221007EE901AB8EEC77A88
:102D480051080232F8EEE77A27EE267A0AEB810E6E
:102D580094420BEB810167EEA67A27EE067A67EEBE
:102D6800867A8EED007AC1ED007ADFD88300D7F835
:102D780010B07B6134E5F0EE675AFEEEE45A15EECA
:102D8800900A34E7F0EE675AFEEEE45A15EE901A10
:102D98006EE7F0EE675AFEEEE45A15EE900A3AE74F
:102DA800F0EE675AFEEEE45A15EE900A4BE767EE2E
:102DB800A57AFDEEE77A17EE900A00B232E567EEE3
:102DC800A57AFDEEE77A17EE900A00B23FE5F0EE3D
:102DD800675AFEEEE05A15EE901A4CE6F0EE675A86
:102DE800FEEEE05A15EE900A30E6F0EE675AFEEE77
:102DF800E05A15EE900AFDE5F0EE675AFEEEE05A4D
:102E080015EE900A0AE667EEA57AFDEEE77A17EE68
:102E1800901A09B24AE567EEA57AFDEEE77A17EE51
:102E2800900A00B22CE5F0EE675AFEEEE45A15EE71
:102E3800902A1FE467EEA57AFDEEE77A17EE902A4E
:102E480012B2FFF731BBF0EE675AFEEEE45A15EE08
:102E5800902AFFF7FDBBF0EE675AFEEEE05A15EE3A
:102E6800902AFFF79BBBF0EE675AFEEEE05A15EE8C
:102E7800902AFFF780BB67EEA57AFDEEE77A17EE9A
:102E8800902A12B2FFF724BB82FF7F0000000030B7
:102E9800000000387E0080FF30B5154C154685B01F
:102EA800046004F1080C01AB07C98CE80700D4EDF5
:102EB800047AF5EEC07A83E80700F1EE10FA14DD23
:102EC800F7EE006A86EEA77A84ED0B7A6DB120469C
:102ED80040F8145F01F018FC064903690020064A0F
:102EE800E1616262E36005B030BD012005B030BD2C
:102EF8006C340124002000300000003000680830E5
:102F0800704700BFB1F5807F03680A4628BF4FF4B9
:102F18008072B1F5807F9A6094BF002001207047CD
:102F28000068143001F050BC70B504688AB0636959
:102F3800E160CBB104F11405284601F0E5FB8446B5
:102F4800EE46E668BCE80F00AEE80F00BCE80F00EC
:102F5800AEE80F009CE803008EE8030069462846A7
:102F6800049601F0D9FAF8B9A069D8B104F11805A6
:102F7800284601F0C9FB8446EE46E468BCE80F0029
:102F8800AEE80F00BCE80F00AEE80F009CE80300B5
:102F98008EE8030069462846049401F0BDFA00381B
:102FA80018BF01200AB070BD01200AB070BD00BF73
:102FB80030B5046883B00D46A3694BB1A3680020FF
:102FC800A26A216A9B00009004F1180001F09EFBA0
:102FD800A3680748626A9B00E169009004F1140045
:102FE80001F094FB0020C4E9005003B030BD00BFDD
:102FF800E5220008024B0022C3E90522704700BF02
:103008006C340124012282B00346C1F3072CADF8C9
:103018000410417000210270104483F802C09A80A5
:10302800D9709A7102B000F045BA00BF82B04FF073
:10303800000C0323ADF80410BDF8042080F810C07C
:103048000280438002B070472DE9F04FBE4E002544
:103058008FB0BE4C037006F14003426007460192F0
:103068008846202229463046C4F85831C4F85461AD
:10307800CDE90355CDE90555CDE90755CDE9095504
:10308800CDE90B550CF066F82022294604F5997015
:10309800C4F82151C4F82551C4F82951C4F82D5158
:1030A8000CF058F8019B84F8385284F820317A687B
:1030B800002A5FD02B464146B64604F590759946DE
:1030C8004FF0010A03EB0310D1F800B0D1F80480E7
:1030D8000133D1F808C02218CE6844F800B0C2F80D
:1030E8000480C2F808C0D660087C2EF8029B1074D1
:1030F8000A7C05F8012F002A69D07A68113184F812
:1031080038A29A42DED84FF4802291489DF80430C4
:1031180008214FF000084FF00009C4F8743100236B
:10312800C4E957020122C4F8643184F87031C4E953
:103138005A2194F83812C4E9608981B3C4F8882107
:10314800002284F8713184F878313B78C4E963222D
:10315800A3B3012200200121013B84F89421C4E992
:103168006801082B2CD8DFE803F0ABB0B5BABFC4B0
:10317800C9CFD6009DF804300121C4F86421C4F8F1
:1031880074314FF4802384F87021714AC4E95723BD
:1031980008230022C4E95A130023C4E96023012349
:1031A800002284F87131002384F878310323C4F8AD
:1031B80088313B78C4E96322002BCAD184F8943162
:1031C800644802F03BFA034638B1FFBEFEE77A686E
:1031D80011319A423FF676AF95E703A95D4803930C
:1031E80002F038FB0546002868D1022240F2FF733E
:1031F800CDE9082300230422CDE90A2394F82031DD
:10320800002B00F0D5804FF0060921E0022B00F0DA
:103218008980012B40F0C4809AF80130012B00F01E
:10322800C180002B4C4B18BF002306A94948CDE9A3
:10323800063901F043FF002840F0BF80013594F8BB
:103248002031EDB2AB4240F2B380444B53F82590A5
:103258002FB207EB071704EB070A504600F02AF9CC
:1032680005EB051323441B7C042B7DDC022B00F3A8
:10327800918000F08D806319002283F81021E35DAE
:10328800002BC3D19AF80130062B00F08580072B5C
:1032980000F08A80022B00F09680032B00F09580C6
:1032A800002B00F09680012B00F09180042B00F099
:1032B8009280052B2A4B18BF0023B6E7FFBEFEE716
:1032C80003224023C4E966237AE707226023C4E97E
:1032D800662375E70F228023C4E9662370E71F225F
:1032E800A023C4E966236BE73F22C023C4E9662311
:1032F80066E77F22E023C4E9662361E7FF224FF4F3
:103308008073C4E966235BE740F2FF124FF49073C1
:10331800C4E9662354E740F2FF324FF4A073C4E9CE
:1033280066234DE79AF80130042B37D0052B3DD0A2
:10333800002B40D0012B42D0022B42D0032B094B4B
:1033480018BF002371E700BF00400030A0340124FB
:1033580000200240FC3501240002B025C4F3000817
:103368000000B84F0020903603233E1D04EB0508EB
:103378004FF0000B264488F8103130460BF1010B52
:1033880000F098F898F8103104365B45F5DC76E7DC
:103398000123EAE70223E8E7104B46E7104B44E72E
:1033A800002342E70F4B40E70F4B3EE70F4B3CE74C
:1033B8000FB0BDE8F08F0E4B37E7FFBEFEE70D4BB1
:1033C80033E70D4B31E70D4B2FE70D4B2DE70D4B39
:1033D8002BE70D4B29E70D4B27E700BF0800900CA2
:1033E8001000C0102000F0148000501D0001802142
:1033F8000004002A0008302E001060320040C03A55
:103408000080F03E00005247000021430000844B3A
:10341800214B02689A4200D07047204A0023204876
:10342800D2F8D81030B51F4C41F0200183B0C4F851
:10343800C001092004F5E075C4E971034FF4806008
:10344800C2F8D810D2F8D8204FF40061C4E973301C
:1034580094F8380202F02002C4F8D4114FF4005155
:10346800984201922846C4F8D811C4E97833019BE0
:1034780014BF00234FF48073C4F8DC3102F010FC51
:1034880008B1FFBEFEE704F5AE73C4F8A851C4F84E
:10349800F83103B030BD00BF00200240004402589C
:1034A80040000240A0340124014802F071BF00BF6F
:1034B800603601248378022B30B504468FB037D0AC
:1034C800032B33D0012B31D000230A93E378012B4F
:1034D8002AD0022B28D000230B93002320460C93DC
:1034E80001F0B2FC0546204601F0B6FC23780990AD
:1034F800082B13D8DFE803F01F3245586B7E91A4E0
:103508000500594BD3F8E02042F48072C3F8E0205C
:10351800D3F8E03003F480730893089B09A9284680
:1035280003F088FA0FB030BD0B93D6E70A93CDE7C6
:1035380011230A93CAE74C4B09A92846D3F8E0207F
:1035480042F00102C3F8E020D3F8E03003F00103B1
:103558000093009B03F06EFA0FB030BD424B09A9EF
:103568002846D3F8E02042F00202C3F8E020D3F85E
:10357800E03003F002030193019B03F05BFA0FB004
:1035880030BD394B09A92846D3F8E02042F004029F
:10359800C3F8E020D3F8E03003F004030293029B61
:1035A80003F048FA0FB030BD2F4B09A92846D3F8CD
:1035B800E02042F00802C3F8E020D3F8E03003F03E
:1035C80008030393039B03F035FA0FB030BD264B75
:1035D80009A92846D3F8E02042F01002C3F8E020F9
:1035E800D3F8E03003F010030493049B03F022FAAD
:1035F8000FB030BD1C4B09A92846D3F8E02042F093
:103608002002C3F8E020D3F8E03003F0200305934C
:10361800059B03F00FFA0FB030BD134B09A92846DC
:10362800D3F8E02042F04002C3F8E020D3F8E030BD
:1036380003F040030693069B03F0FCF90FB030BD7E
:10364800094B09A92846D3F8E02042F08002C3F8C4
:10365800E020D3F8E03003F080030793079B03F0E2
:10366800E9F90FB030BD00BF0044025838B505462F
:1036780001F0EAFB0446284601F0EEFB014620462D
:10368800BDE8384003F0DEBB70B506460D4601F0D4
:10369800DBFB0446304601F0DFFB2A1E01462046CC
:1036A80018BF0122BDE8704003F0D2BB00231222EC
:1036B80070B586B0CDE9022304930368032B01D8C3
:1036C80004230593061D841D304601F0BDFB054605
:1036D800304601F0C1FB034601A92846019303F0D7
:1036E800A9F9204601F0B0FB034620461C4601F02C
:1036F800B3FB01A903462046019303F09BF906B0EA
:1037080070BD00BF634A0368934210B58CB028D0DF
:10371800614A934258D0614A934200F09480604ACB
:10372800934201D00CB010BD5E4C5F48D4F8E03035
:1037380043F00203C4F8E030D4F8E03003F00203A9
:103748000A930A9BFFF7B2FFD4F8F43043F08003E2
:10375800C4F8F430D4F8F43003F080030B930B9BD7
:10376800E0E7504C5148D4F8E03043F00203C4F885
:10377800E030D4F8E03003F002030193019BFFF737
:1037880095FFD4F8E83000221F2043F400131146B7
:10379800C4F8E830D4F8E83003F400130293029B2D
:1037A800D4F8D83043F00103C4F8D830D4F8D8306E
:1037B80003F001030393039B02F0C0F81F200CB031
:1037C800BDE8104002F0F8B8364C3948D4F8E0307B
:1037D80043F08003C4F8E030D4F8E03003F080030D
:1037E8000493049BD4F8E03043F00203C4F8E030BB
:1037F800D4F8E03003F002030593059BFFF756FF6A
:10380800D4F8E8300022212043F480031146C4F89C
:10381800E830D4F8E83003F480030693069BD4F824
:10382800D83043F00103C4F8D830D4F8D83003F0C6
:1038380001030793079B02F081F821200CB0BDE833
:10384800104002F0B9B81B48FFF730FF154B0022B3
:103858004820D3F8E840114644F40004C3F8E8408F
:10386800D3F8E84004F400040894089CD3F8D8403E
:1038780044F00104C3F8D840D3F8D83003F001036A
:103888000993099B02F05AF848200CB0BDE8104093
:1038980002F092B80054004000580040005C00401C
:1038A800001C00580044025868390124E0360124FD
:1038B800B8370124903801242DE9F0431A4B87B01A
:1038C80000254FF010099E46EC46184BFF22E046B3
:1038D80067461A700EF118060EF13004CDE900554E
:1038E800CDE90255ADF80090BCE80F00CDE90455CC
:1038F800AEE80F009CE803000095ADF800908EE854
:103908000300B8E80F000FC69CE803000095ADF867
:10391800009086E803000FCF0FC49CE8030084E8FA
:10392800030007B0BDE8F08304000024DC3601245E
:1039380010B5EFF3108472B6084B1A78120602D548
:1039480004B962B610BD1B78D82205485BB202FBE9
:103958000300143002F01CFDF2E700BFDC3601243E
:10396800E0360124014804F00BB900BF6C3701248C
:10397800014804F005B900BF44380124014804F0A7
:10398800FFB800BF1C3901242DE9F0430F68D82483
:103998003F4D85B007FB04F4032F05EB04030360D8
:1039A80040DCCB680E46012B3CD84DD04FF0D808F0
:1039B800B646DFF8FC9008FB0758BEE80F00C4467F
:1039C800ACE80F00DEF800300DF1100ECCF8003036
:1039D800D8F808C099E80F000EE90F000EEB87032E
:1039E800BCF1010F53F8103CC8F88C3031D0BCF151
:1039F800020F42D0BCF1000F35D0317C8C34D82373
:103A0800002201202C4403FB07534900C3E9260286
:103A1800C3F894102046C3E92822C3E92A2203F0F8
:103A2800A1FE18B1012005B0BDE8F083014620468B
:103A380004F0B2F80028F5D10146204604F0D6F883
:103A4800003818BF0120EEE70B7C103B672BADD97F
:103A5800E8E701F073F80F4B98420CBF0E4B0F4B81
:103A6800C8F89030C9E701F069F80A4B98420CBFD2
:103A78000B4B0C4BC8F89030BFE701F05FF8054BD3
:103A880098420CBF084B094BC8F89030B5E700BF07
:103A9800E0360124000E27072D0FB0303211D02058
:103AA8005F4390608A62E030200BA0101A098010F2
:103AB80020F200082DE9F041D0F8008082B00D46D0
:103AC80017461E4608F18C04204604F061F82028A9
:103AD800FAD1D8F80C3073B96D002046089C3346EB
:103AE8003A46A9B2009403F093FE003818BF0120AB
:103AF80002B0BDE8F081089B32463946204603F003
:103B08005BFFF2E7044B10221A7483F8E82083F86D
:103B1800C02183F898227047E036012430B500238D
:103B280095B04FF48071062204460B9306921393C6
:103B3800CDE90C13CDE90E33CDE9113301F000F8CE
:103B480007282BD004F1100541F2883206A928462F
:103B580004F05EFE28B10123184684F85C3015B0E5
:103B680030BD0222022306A92846CDE900231022EF
:103B78000123CDE9022300224FF48003CDE9042379
:103B880005224FF0807306926A460F9341F28833FC
:103B980004F0AAFF0028DED115B030BD03230120B0
:103BA80084F85C3015B030BD70B50023A4B04FF078
:103BB80080724FF480750446ADF806300D93CDE958
:103BC80010320122CDE90E53CDE91223CDE9143389
:103BD800002943D0F02300F1100508AEADF80630F7
:103BE800C02341F2883231462846089304F010FE7B
:103BF80028B10123184684F85C3024B070BD41F226
:103C080088320DF10601284604F06CFE03460028B0
:103C1800EFD105224FF480711E93284616924FF07B
:103C280080721B9321931F9202AA9FED1F7BCDE9FF
:103C38001C13CDE922338DED027B9FED1D7B41F2F4
:103C4800883316A98DED047B9FED1B7B8DED067BDC
:103C580004F04AFF0028CCD124B070BD00F1100553
:103C680008AE612341F2883231462846089304F0B1
:103C7800CFFD0028BDD141F288320DF1060128465A
:103C880004F0AEFE0028B4D1BDF80630204623F07B
:103C9800780343F04003ADF80630FFF73FFF0028F4
:103CA8009ED0A6E7AFF300800000000001000000EE
:103CB80010000000010000000000000000004000AB
:103CC8002DE9F04F00234FF4807501264FF08078DE
:103CD80004462DED028BABB08DF80730139321937A
:103CE800299314950E96CDF85C80CDE91533CDE96E
:103CF8001863CDE91A33CDE92253CDE92433CDE950
:103D0800273306231C9300F01BFF072808D004F173
:103D1800100741F288321CA9384604F079FD40B1F9
:103D28000123184684F85C302BB0BDEC028BBDE84B
:103D3800F08F4FF0020A4FF0020B4FF0050941F2E5
:103D4800883308AA1CA93846CDF89480CDF870901D
:103D58009FED2D8BCDE908AB4FF0000A4FF4800B97
:103D68008DED0A8BCDE90CAB04F0BEFE0028D7D14F
:103D780041F2883238460EA904F04AFD0028CFD116
:103D8800402341F288320DF1070138468DF807309B
:103D980004F0A8FD0028C3D141F288330EA902AA75
:103DA8003846CDF83890CDF85C809FED197B8DEDC5
:103DB800048BCDE906AB8DED027B04F095FE03463E
:103DC8000028ADD1CDF870904FF00109CDF894805E
:103DD8004FF00008219308AA29931CA93846229578
:103DE800CDE92333CDE9273341F288338DED0A8BB2
:103DF800CDE90CABCDE9088904F076FE002893D014
:103E0800304684F85C608FE7100000000100000075
:103E180040000000400000002DE9F043624CA3B0D0
:103E28000D46046000F08CFE072800F0A980286881
:103E380023466968AA6807C31E46AB8926F8043B6F
:103E48003046257B677B04F0C5FCE0B9574B012D54
:103E58004FF00108E061236114BF4FF480134FF461
:103E68000003C4E9058893FAA3F3B3FA83F34FF484
:103E78008079013BC4F82490C4E90B0030462362E2
:103E880004F03CFC38B10122134684F85C20184643
:103E980023B0BDE8F08366230B90139041F288327B
:103EA80006A90693CDE90C90CDE90E00CDE91100E5
:103EB800304604F0ADFC0028E5D1992341F2883260
:103EC80006A93046069304F0A3FC0028DBD105239D
:103ED8001C9019906A4614934FF08073219014A98E
:103EE8001D9341F288339FED2A7BCDE91A90CDE9E5
:103EF8001F008DED007B9FED287B30468DED027B0A
:103F08009FED277B8DED047B04F0EEFD0028BAD1F0
:103F180029462046FFF748FE0028B4D12046FFF77F
:103F2800CFFE03460028AED1002FB0D118933046FB
:103F38000027002606AA14A9CDF86890CDE91F33FA
:103F4800EB2314934FF440631B934FF400531793E0
:103F58004FF440431C93A0231693062319934FF064
:103F6800805321934FF04073CDE906671D9304F009
:103F780033FE034600288AD0434684F85C8086E7EF
:103F880001230322184684F85C2023B0BDE8F0839F
:103F98000000000001000000100000000100000007
:103FA8000000000000004000403A01240050005288
:103FB8002DE9F04F8FB0414B0024026800AF9A42C0
:103FC8007C63C7E90944C7E90B4403D03C37BD46C5
:103FD800BDE8F08F3A4B40F609213A48EB46D3F852
:103FE800D42007F11C0607F1220A4FF0020942F417
:103FF80080424FF00308C3F8D420D3F8D42002F449
:104008008042BA60BA68D3F8E02042F04002C3F8B0
:10401800E020D3F8E02002F04002FA60FA68D3F812
:10402800E02042F02002C3F8E020D3F8E02002F0BC
:1040380020023A613A69D3F8E02042F01002C3F84E
:10404800E020D3F8E02002F010027A617A69D3F810
:10405800E02042F00202C3F8E020D3F8E030F86133
:1040680003F002033984BB61174B7B60BB697B6833
:1040780053F8040F7B6000F0E7FE7B68054618687C
:1040880000F0EAFE16F8013B786207F124012846A1
:10409800C7F830807B63C7E90A9402F0CBFC564529
:1040A800E5D100225C20114601F048FC5C2001F0BB
:1040B80083FC3C37DD46BD46BDE8F08F005000521A
:1040C800004402580A0A09099C3A0124114B026863
:1040D8009A4200D07047104A70B5D2F8D4300F4CCD
:1040E80023F4804304F11806C2F8D43054F8040FBE
:1040F80000F0AAFE0546206800F0AEFE01462846FC
:1041080002F0D8FDB442F1D15C20BDE8704001F066
:1041180061BC00BF00500052004402589C3A012480
:10412800014804F0E5BD00BF503A0124084B1A1DB0
:10413800981D03F1080110B49C1C9A6603F10A0249
:10414800C3E91834C3E91B015DF8044B5A6770478B
:10415800403A012438B5036871B9026A00F12805AC
:1041680000F5AC74012A0CBF002140218BBB1D4B0C
:104178005722C0F858310DE0426A00F1C00500F539
:10418800E874012A0CBF00214021EBB1164B5A22DA
:10419800C0F8D03100232046C4E901214FF48052F1
:1041A8004FF48061636262614FF48042C4E9033175
:1041B8004FF48073C4E906234FF40033236201F0FF
:1041C8006FFD58B1FFBEFEE7084B5822C0F8D0314A
:1041D800E0E7074B5922C0F85831DBE7C5E920442E
:1041E800A56338BD1000024070000240280002405C
:1041F800580002402DE9F043821D05468BB0031D8F
:1042080005F10A010830CDE9052305F10C02AB6977
:10421800CDE907010992002B3DD0EB69B3FA83F889
:104228004FEA58180123022205AE0AAF4FF00609DB
:104238000393CDE9012356F8044B2B792278934256
:1042480016D02B68F3B1012B02D1F2B10A230493E3
:10425800204600F001FE03462046009300F0F4FDDE
:10426800694602F0E7FBBE42E5D10BB0BDE8F0833A
:10427800697963789942E4D1B8F1000FF3D02B68DB
:10428800002BE0D1CDF81090E2E76378022B14BF41
:104298000A230823DBE74FF00108C3E7534A036802
:1042A800934230B505468BB055D02032934252D058
:1042B8004F4A934204D02032934201D00BB030BD14
:1042C8004C4C4D48D4F8E03043F00103C4F8E030DA
:1042D800D4F8E03003F001030593059BD4F8E030EF
:1042E80043F00803C4F8E030D4F8E03003F00803E2
:1042F8000693069BD4F8E03043F04003C4F8E0305E
:10430800D4F8E03003F040030793079BD4F8F0306B
:1043180043F40003C4F8F030D4F8F03003F4000399
:104328000893089BFFF766FFD4F8D830296843F054
:1043380001032F4A3048C4F8D830891AD4F8D83045
:1043480018BF012103F001030993099B0BB0BDE8D5
:104358003040FFF7FFBE274C2848D4F8E03043F040
:104368000103C4F8E030D4F8E03003F0010300930F
:10437800009BD4F8E03043F01003C4F8E030D4F8E0
:10438800E03003F010030193019BD4F8E03043F0D0
:104398004003C4F8E030D4F8E03003F0400302935F
:1043A800029BD4F8F03043F48003C4F8F030D4F81A
:1043B800F03003F480030393039BFFF71BFFD4F84B
:1043C800D830296843F00103084A0C48C4F8D830AB
:1043D800891AD4F8D83018BF012103F001030493D7
:1043E800049B0BB0BDE83040FFF7B4BE0458014051
:1043F800045C014000440258143D0124B83A0124E9
:10440800014801F0C5BF00BF103C0124014801F07C
:10441800BFBF00BF883C0124014801F0B9BF00BFFD
:104428006C3E0124014801F0B3BF00BFE43E012403
:104438001A4A0368934210B40BD02032934208D032
:10444800174A934216D02032934213D05DF8044B9A
:104458007047144B0022D3F85442C3F85822002C5A
:10446800F4D0D3F84802D3E9931223465DF8044BFD
:10447800520818470B4B0022D3F8B044C3F8B424B1
:10448800002CE3D0D3F8AC24D3F8A814D3F8A404B0
:10449800520823465DF8044B184700BF04580140F2
:1044A800045C0140B83A0124184A0368934210B4E6
:1044B8000BD02032934208D0154A934217D02032AD
:1044C800934214D05DF8044B7047124BD3E99424FF
:1044D8005208C3F85822002CF4D0D3E9920123469D
:1044E80001EB820100EB82005DF8044B1847094B91
:1044F800D3F8AC24D3F8B0445208C3F8B424002C41
:10450800E0D0D3F8A814D3F8A404E8E7045801408D
:10451800045C0140B83A01242DE9F04F0C684FF4CF
:104528001776754F87B004FB06F6012C07EB060AD1
:10453800C0F800A000F3A0800D468E464FF000089A
:10454800D44669A3D3E9002369A1D1E90001CDE9E3
:10455800022306ABCAF8508203EB8403CDE90401B9
:1045680053F810BC53F8083CCAE992880193BEE896
:104578000F00ACE80F00BEE80F00ACE80F00019B8D
:104588009EE80300CAF828B0CAF8C0308CE80300D7
:104598002B69042B0CD8DFE803F0737D87910300A7
:1045A8004FF41773554A03FB04739A64C3F8E02069
:1045B800AA692B6A002A43D0002B4FF4177308BF4F
:1045C800022203FB047318BF0322DA6201221A6372
:1045D800EA696B6A002A40D1191E4FF4177318BF95
:1045E800012103FB0473C3E931126B69022B05D85F
:1045F800434A12F80380434A52F823904FF4177342
:1046080006F128004246494603FB04740023384457
:1046180063646363E365C4F8DC30C4F8CC30C4F881
:10462800F430C4E90F33C4E91533C4E93533C4E9B8
:104638003B33022306F0D0FB002849D0FFBEFEE73B
:10464800191E4FF4177318BF012103FB0473C3E944
:104658000B12EA696B6A002ABED0002B4FF417735D
:1046680008BF022203FB047318BF0322C3F8C42047
:104678000122C3F8C820B8E7012007B0BDE8F08FD1
:104688004FF417734FF4FA5203FB04739A64C3F898
:10469800E0208DE74FF417734FF47A5203FB04734D
:1046A8009A64C3F8E02083E74FF417734FF4FA4293
:1046B80003FB04739A64C3F8E02079E74FF4177397
:1046C8004BF6803203FB04739A64C3F8E0206FE76B
:1046D80006F1C000022342464946384406F07CFBF6
:1046E8000028CAD0FFBEFEE704580140045C014020
:1046F80024580140245C0140B83A012400770100A5
:1047080004F4000808F400080068704770B50468ED
:1047180082B015460E46C4F85032C4E99212069A81
:10472800C4F85422A269012A26D0626A012A9AB2E0
:1047380011D0294604F1C000019206F009FC236A51
:10474800019A012B10D0294604F1280006F000FC3C
:10475800002002B070BD04F1C000019206F08AFC8E
:10476800236A019A012BEED1314604F1280006F0A4
:1047780081FC002002B070BD226A012A9AB211D0D1
:10478800294604F12800019206F0E2FB636A019AC7
:10479800012B10D0294604F1C00006F0D9FB0020F7
:1047A80002B070BD04F12800019206F063FC636A50
:1047B800019A012BEED1314604F1C00006F05AFCF3
:1047C800002002B070BD00BF03681B69042B05D828
:1047D800044A02EB830393ED000A70479FED020A37
:1047E800704700BF14F4000800803B470368D3F803
:1047F80058027047704700BF08B500F035FCBDE8A7
:10480800084001F063B900BF064808B503680BB15A
:1048180002F022FB044803681BB1BDE8084003F01E
:1048280011BA08BD80430124783F0124064808B521
:1048380003680BB102F010FB044803681BB1BDE824
:10484800084003F0FFB908BD80430124783F0124E4
:10485800064808B503680BB102F0FEFA044803687D
:104868001BB1BDE8084003F0EDB908BD8043012441
:10487800783F0124704700BF00F008BC2DE9F041E3
:10488800CEB004464C2200210AA80AF063FC20227C
:10489800002102A80AF05EFCBC2200211EA80AF032
:1048A80059FC022003F042FE2368012B4FF000035D
:1048B80054D0534A02250193C820D16A514B21F0A4
:1048C8000101D162D26A02F0010201929A6942F4AE
:1048D80040429A619B6903F440430193019B494A12
:1048E80093699B04FCD548490224002201268B6A5F
:1048F80004274FF0080823F0030323438B620523A2
:1049080016900AA818934FF48033109617941994A8
:104918001597CDF86880CDE91B222122CDE91344F3
:10492800CDE90A2304F0ECFA00B1FEE73F220323A5
:10493800294602A8CDE9022300220823CDE9042351
:1049480040224023CDE9062340234FF48062CDE97D
:10495800082304F003FE0346B8B1FEE7294A0425FC
:104968000093F0209169264B41F44041916192698E
:1049780002F440420092DA6A42F00102DA62DB6A2B
:1049880003F001030093009BA9E720224FF4805114
:1049980025934FF440152B9280222D931EA8309317
:1049A800269135914FF48071249234920C223394DD
:1049B800439140F2271120921022CDF884802A9743
:1049C8001F96CDE92E34CDE93B334FF48033CDE942
:1049D80022463193002446930623CDE93E4527938A
:1049E8004FF48063094C2C931E94CDE9281204F0EF
:1049F800F5FF00B1FEE703F0BFFD4EB0BDE8F08162
:104A08000004005800480258004402580F130F03CE
:104A18002DE9F0410D46044684B0D1E9000184E84F
:104A2800030000F0F1FAAE797EB36F4608F052FC4D
:104A3800FEF742FF08F098F92B79002B4ED16B79DD
:104A48009BB1BFF34F8FBFF36F8F394B0022C3F871
:104A58005022BFF34F8FBFF36F8F5A6942F4003271
:104A68005A61BFF34F8FBFF36F8F0022002339467F
:104A78003048CDE9002308F0C1FB2E4808F020FC9F
:104A880007F04AFE04B0BDE8F08120466F46FFF704
:104A9800F5FE012400F0C8FF4FF040534FF4807832
:104AA80038460193244BADF80040CDE9023800F0B8
:104AB800D9FF19224FF0404338468DF80F40ADF822
:104AC8000D808DF801408DF80A608DF8082001935B
:104AD80000F0C8FF042000F0B5FFA7E7144C00233E
:104AE800C4F88430BFF34F8FD4F8803043F6E07EAB
:104AF800C3F3C906C3F34E334FEA431C0CEA0E0056
:104B0800334640EA8372013BC4F860225A1CF8D14C
:104B1800ACF1200C1CF1200FF0D1BFF34F8F63696B
:104B280043F480336361BFF34F8FBFF36F8F86E722
:104B380000ED00E0703F01240E00010304F03EBECA
:104B48001C4B9B6803F17842B2F5003F25D3B3F5BF
:104B5800803F20D303F16042B2F5003F1FD303F139
:104B68005C42B2F5002F1CD303F17042B2F5902FCE
:104B780019D303F14842B2F5803F16D303F18042BE
:104B8800B2F1806F13D303F1E043B3F5000F2CBFEC
:104B98000820072070470120704700207047022036
:104BA800704703207047042070470520704706208F
:104BB800704700BF00ED00E003480023034A0449A2
:104BC800036009F0A7BE00BF703F01240000002465
:104BD800FD47000810B4204C0022204B83B0D4F8C5
:104BE80088101F4841F47001C4F8881019681D4CDA
:104BF80041F0010119601A61196808401A491860E2
:104C08009A61DA611A629A62DA621A635A639A637B
:104C1800DA631A645A64186820F4802018601A66E7
:104C2800D3F8DC2042F06042C3F8DC20D3F8DC3053
:104C38000193019B23681940B1F1005F03D20B4B2C
:104C48000122C3F80821044B4FF000629A6003B0B8
:104C58005DF8044B704700BF00ED00E000440258C7
:104C68007FEDF6EA0010005C0000FFFF00800051B5
:104C780000F57171D0F8040407F036B9C1EBC1032F
:104C880000EB8303D0F80404D3F8082207F05AB9DC
:104C9800C1EBC10300EB8303D0F804049A6C07F05E
:104CA8008FB900BFD0F8040407F02EBAC16810B558
:104CB800044619B1022900D0FEE70121D4F8040402
:104CC80007F00CFAD4F80404BDE8104007F0DEB988
:104CD80010B50446D0F8040407F004FA2268D2F8A4
:104CE800003E43F00103C2F8003E236A23B1034AA1
:104CF800136943F00603136110BD00BF00ED00E027
:104D0800D0F8040407F0F8B9D0F8040407F00CBA96
:104D1800D0F8040407F006BAD0F8040407F006BA7D
:104D2800D0F8040407F004BA9446D0F898021A465A
:104D380008B5634603F0EAFA032802D8024B185C68
:104D480008BD022008BD00BF38F40008D0F898025A
:104D580008B503F069FB032802D8024B185C08BDAC
:104D6800022008BD38F40008D0F8980208B503F00E
:104D78009FFB032802D8024B185C08BD022008BD1F
:104D880038F400080A06D0F8983206D4C1EBC101FD
:104D980003EB810191F8FE01704701F07F01C1EB3F
:104DA800C10103EB810191F83E007047D0F89802E9
:104DB80008B503F095FA032802D8024B185C08BD21
:104DC800022008BD38F40008D0F8980208B503F0AE
:104DD80003FB032802D8024B185C08BD022008BD5B
:104DE80038F40008D0F8980208B503F0CDFA032883
:104DF80002D8024B185C08BD022008BD38F4000830
:104E0800D0F8C00207F042BCD0F8C00207F056BC88
:104E1800D0F8C00207F05EBC704700BFD0F8C002EF
:104E280007F044BCD0F8C00207F044BCD0F8D00367
:104E380008B502F0D1FB032802D8024B185C08BD64
:104E4800022008BD3CF40008024B027853F8220007
:104E5800704700BF60F40008024B427833F8120034
:104E6800704700BF40F400088CB00A2814D8DFE867
:104E780000F01523313F4D5B6977859306004D4B54
:104E8800D3F8E02042F48062C3F8E020D3F8E030A1
:104E980003F480630B930B9B0CB07047454BD3F81E
:104EA800E02042F00102C3F8E020D3F8E03003F03C
:104EB80001030193019BEFE73E4BD3F8E02042F05A
:104EC8000202C3F8E020D3F8E03003F002030293B3
:104ED800029BE1E7374BD3F8E02042F00402C3F825
:104EE800E020D3F8E03003F004030393039BD3E7F7
:104EF800304BD3F8E02042F00802C3F8E020D3F8A2
:104F0800E03003F008030493049BC5E7294BD3F86A
:104F1800E02042F01002C3F8E020D3F8E03003F0BC
:104F280010030593059BB7E7224BD3F8E02042F026
:104F38002002C3F8E020D3F8E03003F02003069302
:104F4800069BA9E71B4BD3F8E02042F04002C3F8C8
:104F5800E020D3F8E03003F040030793079B9BE77A
:104F6800144BD3F8E02042F08002C3F8E020D3F8D5
:104F7800E03003F080030893089B8DE70D4BD3F8CE
:104F8800E02042F48072C3F8E020D3F8E03003F464
:104F980080730993099B7FE7064BD3F8E02042F41E
:104FA8000072C3F8E020D3F8E03003F400730A93EA
:104FB8000A9B71E700440258704700BF0F4B1B78EB
:104FC8000BB90120704710B504464FF47A700C4AAB
:104FD800B0FBF3F31068B0FBF3F000F00FFD0F2CFB
:104FE80000D808B1012010BD002221464FF0FF3043
:104FF80000F0A4FC034B00201C6010BD54000024EA
:105008004C0000245800002438B50320124D00F04D
:1050180083FC124C04F002FA114A12499369C3F353
:105028000323CB5C03F01F0320FA03F30F202B604C
:10503800926902F00F028A5C02F01F02D3402360DB
:10504800FFF7BCFF10B10124204638BD0446FFF726
:10505800B3FF204638BD00BF4C0000245000002498
:105068000044025828F40008034A044B11681B78CE
:105078000B441360704700BF4446012454000024C9
:10508800014B1868704700BF4446012438B50446F0
:10509800FFF7F6FF0546631C02D0044B1B781C443F
:1050A800FFF7EEFF431BA342FAD338BD5400002498
:1050B800014B1868000C70470010005CF0B5002226
:1050C80083B0019290F85020012A00F01C81034619
:1050D80001201A6883F850009468640700F18A80F8
:1050E8000C68C4F31305002D40F08F80C4F384646A
:1050F800A0404D684FF01F0ED6694FEA951C30430B
:105108000CF00C0CD06105F01F0002F13005844052
:105118000EFA00FE5CF8050020EA0E0004434CF885
:105128000540906840076ED4956815F0080547D18A
:105138000C68072002F11406B94F4FEAD45CC4F397
:1051480004540CF0040C00FA04FE886800FA04F415
:105158005CF8060020EA0E0020434CF80600386888
:1051680000F07040B0F1805F00F0C580D068D6686C
:10517800C70600F1E880C6F382064869760000FA9F
:1051880006F60F69042F00F0C18002F16004086878
:1051980054F827C000F0F8400CF0004C40EA0C002E
:1051A800304344F82700487E0E69012854F8260049
:1051B80008BF4FF0004520F00040054344F8265052
:1051C8009068C40714D4CE68086806F01807954C90
:1051D800D2F8C050FC40C0F31307044025EA070585
:1051E8002C43C2F8C040904CA64246D0002816DB9B
:1051F800002003E05A6D42F020025A65002283F82D
:10520800502003B0F0BD9068DAE794FAA4F5B5FA37
:1052180085F5C4F3846405F01F05A84069E7834950
:105228008A4200F0B68001F580718A4200F0B180B0
:105238007F4D804CA968A46801F0E076E44304F04F
:105248000104002C00F0B4807B4CA04200F0FC80EC
:105258007A4CA04200F01A81794CA042C8D1490288
:10526800C6D474498A42C3D1AA68002022F0E072E9
:10527800324342F48002AA60C0E7002F6AD090FA55
:10528800A0F4B4FA84F4013404F01F04092C00F2E9
:10529800A48090FAA0F4B4FA84F490FAA0F5B5FAD0
:1052A80085F5013401260135A40605F01F0504F033
:1052B800F84406FA05F52C4390FAA0F0B0FA80F00D
:1052C800304400F01F0000EB400000052043C60DED
:1052D80002F11405C0F30450072406F0040604FA8A
:1052E80000F7745924EA07048F6807FA00F020438E
:1052F800705108687AE7D6684869C6F3820676006E
:1053080000FA06F63DE7022003B0F0BD106E0C6807
:1053180000F0F840A506B0EB846F30D0506E00F076
:10532800F840854226D0906E00F0F84085422BD098
:10533800D06E00F0F84085427FF442AFD06E20F086
:105348000040D0663CE77608486906F0080600FA8F
:1053580006F616E7800E441C04F01F06092E2DD809
:10536800A406012004F0F844B040044306EB4600CC
:105378000005ABE7506E20F000405066D3E7106E92
:1053880020F000401066C9E7906E20F0004090665B
:10539800CEE7264C2B4D04F58074A96854F8F86CB8
:1053A800A468344301F0E076E44304F0010448E7DC
:1053B8005A6D012042F020025A651FE706EB4600AD
:1053C800A50601241E3805F0F84504FA06F600057E
:1053D800354340F00070284379E790FAA0F5B5FA14
:1053E80085F590FAA0F4B4FA84F401350126013465
:1053F800AD0604F01F0405F0F84506FA04F4254349
:1054080090FAA0F4B4FA84F4344404F01F0404EBD2
:105418004404A4F11E00000540F00070DBE700BF63
:105428000010005CFFFF0F000000FF470020024053
:105438000063025800600258000084CB000052C785
:105448000000B8CF0023024008023FF5D1AE17494B
:105458008A427FF4CDAE164AA9681268154821F031
:10546800E07192093143A0FB020241F40001920964
:10547800A96052000192019A002A3FF4B9AE019A3C
:10548800013A0192019A002AF9D1B1E611F080702F
:105498007FF4AEAE05498A427FF4AAAEAA6822F02C
:1054A800E072324342F08072AA60A7E600600258B8
:1054B8004C000024632D3E0538B5574A044603685E
:1054C800934226D002F58072934222D0534B9B68B8
:1054D80013F4403F22D004F05BF963680546B3F546
:1054E800003F00F08880B3F5403F70D0B3F5803FAF
:1054F80000F08180FFF7DCFD41F2030398422DD8CC
:10550800474B9D425DD92268936843F4807393604A
:1055180038BD444B9B6813F4403FDCD14FF4002066
:1055280005F0D4F963680546B3F5101F6DD008D8A7
:10553800B3F5E01F55D01AD9B3F5001FDAD14509E4
:10554800D8E7B3F5201F4AD0B3F5301FD2D1FFF703
:10555800AFFD41F20303984233D92D0A324B9D42E5
:105568001DD82268936823F44073936038BDB3F55F
:10557800801F06D00AD9B3F5A01F02D0B3F5C01F0B
:10558800B8D19B0C5B00B5FBF3F5B3E7B3F5002F7F
:10559800F7D023F40022B2F5802FF2D0AAE7234BEC
:1055A800234A2B4493421ED9224B234A2B4493422D
:1055B800226893682BD823F4407343F400739360F4
:1055C80038BD2268936823F48073936038BD8508DA
:1055D800FFF76EFD41F203039842BFD890E7C50973
:1055E80088E7050986E72268936823F4407343F443
:1055F8008073936038BD1B0CB5FBF3F5FFF758FDBE
:1056080041F203039842A9D87AE7850972E743F47F
:105618004073936038BD00BF002002400063025809
:10562800002D310100230240105E5F00EFA1A0FFB2
:105638000F5E5F00DF4341FF1FBCBE0030B5002393
:1056480083B00193002800F0D080456D0446002DFA
:1056580000F0BA80226893689B0003D59168714B6B
:105668000B4093609368DD0015D46F4B90686F49C9
:105678001B6801406E489B0941F08051A0FB030361
:1056880091609B090193019B2BB1019B013B019305
:10569800019B002BF9D19368D80024D4636D0125B0
:1056A80043F010036365A36D2B43A365936813F060
:1056B800040F636D1DD1D9061BD4636D23F4817368
:1056C80043F0020363659368DB0728D4594B9A4279
:1056D80017D003F580739A4213D0574B9B68D907AC
:1056E8001DD4564A15E09368002513F0040F636D26
:1056F800E1D0636D012543F010032846636503B0CC
:1057080030BD4C4A4E4B92689B681343D80706D469
:105718004C4A9368616823F47C130B439360FFF74A
:10572800C7FC41F20303A1689842237F52D894F83A
:1057380015C01A04206B42EA4C3202430A43012B7B
:1057480003D1236A013B42EA4342636A23B103F46B
:105758007873A16A0B431A4323683B49D868014010
:105768000A43DA609A6812F0040F9A681CD112078B
:105778001AD4D868354A217D024042EA8132E16A6A
:105788000A43DA6094F83820012A3AD01A6922F0DC
:1057980001021A611A692046616B22F070420A43BD
:1057A8001A61FFF789FE2368E268012A21D01A6B83
:1057B80022F00F021A63636D284623F0030343F0B7
:1057C8000103636503B030BDFDF722FEA56584F8CB
:1057D80050503FE71029AAD1617D1A0442EA4132AC
:1057E800216B0A4342F01C02A9E70125284603B0B1
:1057F80030BD196BA26921F00F01013A0A431A63FF
:10580800D9E7D4E9102118690A43114901400A432C
:10581800A16C0A43E16B42EA014242F001021A61BB
:10582800B8E700BFC0FFFF5F4C000024C0FFFF6F58
:10583800632D3E05002002400060025800630258B4
:10584800002102400023024003C0F0FFFCBFFFFF1D
:105858001EF800FCF0B490F850200E68012A49D0D8
:105868000346294A01201C6883F85000944208D056
:105878005A6D002142F0200283F850105A65F0BC9E
:105888007047224DAA6852070AD5A2685A6D0120AE
:1058980042F020025A65002283F85020F0BC70477D
:1058A800A06810F00400F1D1C6B1DFF868C04F68F5
:1058B800DCF8082022F440423A43CCF80820A468D7
:1058C800AA682243D40713D48A68DCF80810164360
:1058D8000F4A0A401643CCF80860DCE70D498A688D
:1058E80022F440428A60A068AA680243D00704D51F
:1058F8000020D0E70220F0BC70478C683046044A8C
:1059080022408A60C7E700BF002002400021024011
:10591800E0F0FFFF0023024006494FF6FF0C0002AB
:10592800054BCA6800F4E06002EA0C021043034326
:10593800CB60704700ED00E00000FA051B4BDB6808
:10594800C3F3022300B5C3F1070E03F1040CBEF143
:10595800040F28BF4FF0040EBCF1060F1AD9033B01
:105968004FF0FF3C0CFA03FC22EA0C024FF0FF3C1C
:1059780000280CFA0EFC21EA0C0101FA03F141EAB5
:1059880002010ADB09010A4BC9B2034483F8001378
:105998005DF804FB00221346E8E700F00F00090158
:1059A800044BC9B2034419765DF804FB00ED00E02E
:1059B80000E100E0FCEC00E0002807DB00F01F013C
:1059C80001234009024A8B4042F82030704700BF4B
:1059D80000E100E000280DDB4309012200F01F0070
:1059E8000549203302FA00F041F82300BFF34F8F36
:1059F800BFF36F8F704700BF00E100E0431EB3F1B3
:105A0800807F0CD24FF0E022002006494FF0F00CC6
:105A18005361072381F823C0906113617047012007
:105A2800704700BF00ED00E0BFF35F8F044B00211B
:105A38005A6A22F480325A62C3F89410704700BF41
:105A480000ED00E0064B40F00100C3F894005A6AEC
:105A580042F480325A62BFF34F8FBFF36F8F7047A3
:105A680000ED00E0174A4378C2F89830017821B376
:105A7800436800B5C2F89C30C37A90F80CC01B0686
:105A880090F80FE043EA0C7390F80AC00B43817B4F
:105A980043EACC4390F80DC043EA8C4390F809C020
:105AA80043EA4143017A43EA0E4343EA0C2343EABB
:105AB8004103C2F8A0305DF804FBC2F89C10C2F89C
:105AC800A010704700ED00E0704700BF08B5FFF771
