:020000040800F2
:100000000000022069060008650600080543000894
:100010006506000865060008650600080000000087
:10002000000000000000000000000000650600085D
:100030006506000800000000650600088942000807
:1000400065060008650600086506000865060008E4
:1000500065060008650600086506000865060008D4
:10006000650600086506000865060008913E000860
:100070009D3E000865060008A93E0008B53E000840
:1000800065060008BD33000865060008650600081F
:100090006506000865060008650600086506000894
:1000A0006506000865060008650600086506000884
:1000B000650600086506000865060008F1330008BB
:1000C00065060008FD3300086506000809C0000841
:1000D0006506000865060008650600086506000854
:1000E00065060008650600080000000065060008B7
:1000F00065060008650600086506000815C00008CA
:100100006506000865060008650600086506000823
:100110006506000865060008650600086506000813
:100120006506000865060008650600086506000803
:1001300065060008650600086506000865060008F3
:1001400000000000000000000000000000000000AF
:1001500065060008650600086506000865060008D3
:10016000093400086506000899420008BD420008ED
:1001700065060008E14200086506000865060008FB
:1001800065060008650600086506000865060008A3
:100190006506000865060008650600086506000893
:1001A0006506000865060008650600086506000883
:1001B000B13B0008650600086506000865060008F2
:1001C0006506000865060008650600086506000863
:1001D0006506000865060008650600086506000853
:1001E0006506000865060008650600086506000843
:1001F0006506000865060008650600086506000833
:100200006506000865060008650600086506000822
:100210006506000865060008650600086506000812
:100220006506000865060008650600080000000075
:100230006506000865060008000000006506000865
:1002400065060008650600086506000865060008E2
:1002500065060008650600086506000865060008D2
:1002600065060008650600086506000865060008C2
:100270006506000865060008650600080000000025
:100280006506000865060008650600080000000015
:080290000000000065060008F3
:1002980010B5054C237833B9044B13B10448AFF3B8
:1002A80000800123237010BDC80100240000000055
:1002B80038E9000808B5034B1BB103490348AFF3FD
:1002C800008008BD00000000CC01002438E90008C7
:1002D80010F8012B11F8013B012A28BF9A42F7D0E8
:1002E800D01A704781F0004102E000BF83F000435C
:1002F80030B54FEA41044FEA430594EA050F08BFB9
:1003080090EA020F1FBF54EA000C55EA020C7FEA7C
:10031800645C7FEA655C00F0E2804FEA5454D4EBF9
:100328005555B8BF6D420CDD2C4480EA020281EAC3
:10033800030382EA000083EA010180EA020281EAFB
:100348000303362D88BF30BD11F0004F4FEA01314D
:100358004FF4801C4CEA113102D0404261EB41015C
:1003680013F0004F4FEA03334CEA133302D05242E2
:1003780063EB430394EA050F00F0A780A4F101049E
:10038800D5F1200E0DDB02FA0EFC22FA05F28018D8
:1003980041F1000103FA0EF2801843FA05F35941BE
:1003A8000EE0A5F120050EF1200E012A03FA0EFC3D
:1003B80028BF4CF0020C43FA05F3C01851EBE37167
:1003C80001F0004507D54FF0000EDCF1000C7EEB84
:1003D80000006EEB0101B1F5801F1BD3B1F5001FC2
:1003E8000CD349085FEA30004FEA3C0C04F10104E1
:1003F8004FEA445212F5800F80F09A80BCF1004F0A
:1004080008BF5FEA500C50F1000041EB045141EA8B
:10041800050130BD5FEA4C0C404141EB0101013C54
:1004280028BFB1F5801FE9D291F0000F04BF014643
:100438000020B1FA81F308BF2033A3F10B03B3F115
:1004480020020CDA0C3208DD02F1140CC2F10C02A5
:1004580001FA0CF021FA02F10CE002F11402D8BF03
:10046800C2F1200C01FA02F120FA0CFCDCBF41EACF
:100478000C019040E41AA2BF01EB0451294330BD9E
:100488006FEA04041F3C1CDA0C340EDC04F114047B
:10049800C4F1200220FA04F001FA02F340EA030052
:1004A80021FA04F345EA030130BDC4F10C04C4F198
:1004B800200220FA02F001FA04F340EA0300294678
:1004C80030BD21FA04F0294630BD94F0000F83F4C2
:1004D800801306BF81F480110134013D4EE77FEAA5
:1004E800645C18BF7FEA655C29D094EA050F08BFF1
:1004F80090EA020F05D054EA000C04BF19461046D2
:1005080030BD91EA030F1EBF0021002030BD5FEA15
:10051800545C05D14000494128BF41F0004130BD3D
:1005280014F580043CBF01F5801130BD01F0004591
:1005380045F0FE4141F470014FF0000030BD7FEA04
:10054800645C1ABF194610467FEA655C1CBF0B46FF
:10055800024650EA013406BF52EA033591EA030F16
:1005680041F4002130BD00BF90F0000F04BF00210E
:10057800704730B54FF4806404F132044FF0000541
:100588004FF0000150E700BF90F0000F04BF0021BA
:10059800704730B54FF4806404F1320410F0004520
:1005A80048BF40424FF000013EE700BF42004FEA1B
:1005B800E2014FEA31014FEA02701FBF12F07F4398
:1005C80093F07F4F81F06051704732F07F4208BF4F
:1005D800704793F07F4F04BF41F40021704730B556
:1005E8004FF4607401F0004521F000411CE700BFA2
:1005F80050EA010208BF704730B54FF000050AE025
:1006080050EA010208BF704730B511F0004502D525
:10061800404261EB41014FF4806404F132045FEA27
:10062800915C3FF4D8AE4FF003025FEADC0C18BFD0
:1006380003325FEADC0C18BF033202EBDC02C2F1C2
:10064800200300FA03FC20FA02F001FA03FE40EA54
:100658000E0021FA02F11444BDE600BFFEE700BF18
:100668000B480C4A904203D0121A0B490DF078FE41
:100678000A480B4A904203D0121A00210DF07EFE60
:1006880003F0ECFF0DF040FE01F0A4F9FEE700BF17
:1006980000000024C801002458E90008C80100240B
:1006A8009C4C0124704700BF704700BF704700BFD3
:1006B800704700BF704700BF4020704780207047D8
:1006C80049424FF480621030C9B20DF057BE00BFE6
:1006D800704700BF10B504464FF482610DF0A8FAC8
:1006E800204610BD2DE9F04F4FF0B00885B0054603
:1006F80000F1080700F18F0600F28F494FF47A7B6A
:100708004FF0000A297B022303AA3846CDF800B02F
:10071800A6F180048DF80CA08DF80D8002F00CFF76
:10072800297B022303AA3846CDF800B08DF80CA027
:100738008DF80DA002F000FF4FF0100C297B02236A
:1007480003AA3846CDF800B08DF80CA08DF80DC07E
:1007580002F0F2FE4FF47A7014F801CF4FF0400E19
:10076800297B0223009003AA38468DF80CE08DF807
:100778000DC002F0E1FEB442ECD104F1800608F1AC
:1007880001084E455FFA88F8B8D105B0BDE8F08F8A
:100798002DE9F04F89B008AC9DF84870019104E943
:1007A8000C000B78002B00F0AB801A469DF81880DF
:1007B8009DF819300646454690460393079B0593D6
:1007C800A8F12004E3B25E2B00F29E8033685E4AF3
:1007D800DB68934240F09B808020B3882B4483429F
:1007E80000F392803368594A9B68934240F09280A4
:1007F8004020F188039A02918B18834200F3848089
:10080800002A00F0918002FB04F46FF00049059B78
:10081800A1441444B6F804B003EB4909023BCDF8EF
:10082800108003EB44030C469A4639F802CFA5B36F
:1008380004F007034FF0010EE20859460EFA03FED2
:100848000BF110034FFA8EFE03EBC21200236FEA7E
:100858000E0832440DE07F2906D83F2C04D81078C2
:1008680097B14EEA00001070013301320131AB42FA
:1008780013D00CFA03F00004EDD47F29F4D83F2CF0
:10088800F2D81078002FECD0013308EA00000132CA
:100898000131AB4202F8010CEBD1D14504F101045E
:1008A800C3D1DDF8108032680BEB05042649D36804
:1008B800A4B28B4234D18020844204D3D368224925
:1008C8008B423AD17F249368204AB480934224D142
:1008D8004020029B834206D333681C4A9B6893429C
:1008E80025D13F230293029BF380019B1878404552
:1008F80007D113F8018F0193B8F1000F7FF460AFAF
:10090800002009B0BDE8F08F4FF00008EDE7304651
:10091800984762E7304698476BE730469847D8E7EC
:10092800304698473268C7E7B6F804B0BBE73046A8
:100938009847013883B20293D5E730469847013883
:10094800326884B2BFE700BFC5060008C1060008C8
:100958002DE9F04F85B0A1F1200504AC9DF8387061
:10096800009104E90C00EBB25E2B00F2958003685D
:1009780080465D4ADB689DF8084093429DF809600F
:1009880040F094808020B8F804302344834200F378
:100998008380D8F80030554A9B68934240F088809D
:1009A8004020B8F8062093190192834274DC002E87
:1009B80000F0898006FB05F56FF00040039B964622
:1009C80028442E44B8F804A003EB4000023B03EB94
:1009D800460B30F8026FBCB30EF007034FF0010C62
:1009E8004FEADE0251460CFA03FC0AF110034FFAF3
:1009F8008CFC03EBC21200236FEA0C0942440EE0A0
:100A08007F2907D8BEF13F0F04D815789FB14CEA6B
:100A1800050515700133013201319C4214D006FAE4
:100A280003F52D04ECD47F29F4D8BEF13F0FF1D89B
:100A38001578002FEBD0013309EA050501320131A1
:100A48009C4202F8015CEAD158450EF1010EC0D172
:100A5800D8F8003054442449DA68A4B28A422DD127
:100A6800802084421CD29B68204AA8F80440934204
:100A780021D14020019B834207D3D8F800301B4A7C
:100A88009B68934229D13F230193DDE90003A8F82D
:100A9800063005B0BDE8F08F002005B0BDE8F08F46
:100AA800DA6811498A4211D17F24DCE798476AE75E
:100AB8004046984775E740469847DBE740469047E9
:100AC800D8F80030CDE7B8F804A0C1E74046904711
:100AD8000138D8F8003084B2C5E740469847013855
:100AE80083B20193D1E700BFC5060008C10600081C
:100AF8002DE9F04F89B01D46884606901046129C95
:100B080010F8013B13999DF85060009233B1002210
:100B180010F8013B0132002BFAD193B22A78687899
:100B280012FB03F302B21BB223EAE373082900F2B3
:100B3800A981DFE811F0020114012001340142010A
:100B48005001670171010900A18827880F44B4F991
:100B58000610FF1A0029BFB2C0F2FF80B4F802C025
:100B680006980CEB6104C280A4EB520283800780D4
:100B780094B24480A64AD8F8003011460192DA6847
:100B88008A4240F08D818020B84205D8DA68019900
:100B98008A4240F09A817F279E4A9B68A8F8047091
:100BA8009342039240F089814020A04207D8D8F8A8
:100BB8000030039A9B68934240F082813F24009B57
:100BC800A8F8064093F800B06B782C7804936B680B
:100BD8000793BBF1000F00F0AC80ABF12005EBB23E
:100BE8005E2B00F22E81D8F80030019ADB68934220
:100BF80040F02A818020B8F8043023449842C0F29B
:100C08002081D8F80030039A9B68934240F01F81F6
:100C18004020B8F80610049A02918B189842C0F246
:100C28001081002A00F01E8102FB05F56FF0004ECE
:100C3800079BAE441544CDF814B003EB4E0E023BAF
:100C4800B8F804A003EB45030D469B463EF8027F27
:100C5800A4B305F007034FF0010CEA0851460CFA5B
:100C680003FC0AF110034FFA8CFC03EBC2120023B9
:100C78006FEA0C0942440DE07F2906D83F2D04D8BD
:100C8800107896B14CEA000010700133013201313E
:100C98009C4213D007FA03F00004EDD47F29F4D85E
:100CA8003F2DF2D81078002EECD0013309EA00006D
:100CB800013201319C4202F8010CEBD1F34505F1F8
:100CC8000105C3D1DDF814B0D8F800200AEB0405FB
:100CD8000199D368ADB28B4240F0BF808020854235
:100CE80005D3D36801998B4240F0C5807F2593686E
:100CF800039AA8F80450934240F0AC804020029B2D
:100D0800834208D3D8F80030039A9B68934240F096
:100D1800AC803F230293029BA8F80630009A137810
:100D28005B4506D112F801BF0092BBF1000F7FF4BA
:100D380054AF069809B0BDE8F08FB4F904102788BD
:100D48000029B8BF013107EB6107B4F90610A7EB1A
:100D580063070029BFB2BFF601AF0131FEE6B4F95F
:100D680000700699B4F902400F80BFB24C80A4B25B
:100D78008B80CA80FEE6B4F9041027880029B4F9EC
:100D88000240B8BF013107EB610706998B80A7EBDA
:100D980063034C80A4B29FB2CA800F80EAE6A188A0
:100DA8002788B4F902400F4406998B80FB1A4C80BF
:100DB800A4B29FB2CA800F80DCE6E7886188394414
:100DC800B4F90070081A069984B20F808B80BFB2FC
:100DD800CA804C80CEE6B4F9041027880029B8BF31
:100DE800013107EB6107A7EB6307B4F802C0BFB294
:100DF800E488069964448B80201ACA800F8084B2E4
:100E08004C80B7E62788A1880F44FF1AEDE700BF9A
:100E1800C5060008C1060008B4F90610B4F802C0F7
:100E28000029B4F900700698B8BF0131C2800CEBF4
:100E3800610407808380BFB2A4EB520294B244805D
:100E480098E64FF0000B69E740469847D3E64046DE
:100E58009847DEE64046984751E740469847D8F815
:100E680000203CE7B8F804A02EE740469847013830
:100E780083B202934FE7404698470138D8F80020DC
:100E880085B234E7D8F800300024069A1249148055
:100E980054809480D480DA6801918A4205D027462C
:100EA80040469047D8F800306EE69B680B4AA8F891
:100EB8000440934203923FF482AE4046984774E65A
:100EC80040469847013884B279E640469047013851
:100ED800D8F8003087B25FE6C5060008C1060008EA
:100EE8007F291ED83F2A1CD86BB1D3084FF0010CBC
:100EF80002F0070201EBC3130CFA02F2C1180B7CD3
:100F08001A430A747047D3084FF0010C02F0070225
:100F180001EBC3130CFA02FCC1180A7C22EA0C028A
:100F28000A7470472DE9F04F83B05C1A0C9E002CB0
:100F38009DF83490A6EB0208B8BF6442B8F1000FE0
:100F4800B8BFC8F100088B428CBF4FF0010A4FF0C0
:100F5800FF3A9642A4EB080C51D84FF0FF357F2B8F
:100F6800019512D83F2E10D8F50806F0070E012774
:100F780003EBC5150544B9F1000F47D007FA0EF782
:100F880095F810E047EA0E072F74964201D18B427C
:100F980029D0C8F100077F2914D83F2A12D8D508CC
:100FA80002F0070B4FF0010E01EBC5150544B9F12E
:100FB800000F1BD00EFA0BFE95F810B04EEA0B0E80
:100FC80085F810E0B7EB4C0F4FEA4C0502DAACEBB2
:100FD800080C5144AC4202DD019DA4442A449942C4
:100FE800D9D19642D7D103B0BDE8F08F0EFA0BFBEA
:100FF80095F810E02EEA0B0E85F810E0E2E70125DF
:101008007F2B0195C5D83F2EAED9C2E707FA0EFE51
:101018002F7C964227EA0E072F74B8D0B9E700BF95
:101028002DE9F04F2DED068B83B01F4680460D4607
:101038009DF8503016460193139B002BC0F2218275
:10104800129A134406EE103ADDED127AB8EEC66B2A
:101058009FEDCD4BB8EEE77B9FEDCD5B27EE047B94
:1010680026EE046B87EE050B86EE05ABF7EEC08B1C
:10107800B0EE680A0CF078FE07EE907AB7EECAABCD
:10108800F8EE679AB0EE408AB0EE680A0CF068FF96
:1010980060EE698AB0EE4A0A0CF066FEB0EE409A3D
:1010A800B0EE4A0A0CF05CFF20EE690A29EE888A45
:1010B80029EE899A70EE687AF0EE006A39EE487A7D
:1010C80067EEA77AE7EE077AF4EEE67AF1EE10FA21
:1010D80006D5139BB42B40F396804FF0010901E02D
:1010E8004FF00009012478424FF0000C0095E31BF3
:1010F800214627462246A340B9F1000F6AD1424251
:1011080006EE90CACCF1000107EE102AB8EEE66AA6
:1011180007EE901A06EE900AB8EEC77A139A66EEB2
:10112800084AF8EEE77AB42A27EE284AF8EEE66A83
:1011380067EE885A74EEC43A26EEA85A26EE096A73
:1011480066EE806A67EE897A27EE007AF5EEC03A95
:1011580040F3F280F1EE10FA00F17F8176EE473A23
:1011680074EEC54AF5EEC03AF1EE10FAF5EEC04A53
:10117800CCBF01220022F1EE10FA00F1778136EEA1
:10118800666A35EEC55AB5EEC06AF1EE10FAB5EEEC
:10119800C05ACCBF01210021F1EE10FA00F16F8195
:1011A80077EEE66AF5EEC06AF1EE10FACCBF0127D9
:1011B800002775EEC45AF5EEC05AF1EE10FA00F1A8
:1011C800478177EEC77AF5EEC07AF1EE10FACCBF18
:1011D80001240024002A40F08A80002964D1BFB984
:1011E800C4BB9C4558DB0CF1010C03EB4C0E1CEB0B
:1011F800000F0EF1010E00F0C08098424FDB7346DD
:1012080000287FF779AF03B0BDEC068BBDE8F08FFF
:10121800009DA6EB0C0E00EB050ABAF17F0FDFD894
:10122800BEF13F0FDCD84FEADE0B019D0AEBCB1A6B
:10123800002D00F0B1800EF0070BC2444FF0010EF4
:101248000EFA0BFE9AF810B04EEA0B0E8AF810E070
:10125800002CC6D0009DA6EB0C0EA5EB000ABAF137
:101268007F0FBED8BEF13F0FBBD84FEADE0B019D02
:101278000AEBCB1A002D00F0AE800EF0070BC2442B
:101288004FF0010E9C450EFA0BFE9AF810B04EEA8C
:101298000B0E8AF810E0A6DA98429E46AFDA0130C3
:1012A8000EEB40030133ABE7009D0CEB060E00EBA1
:1012B800050ABAF17F0F92D8BEF13F0F8FD84FEAD7
:1012C800DE0B019D0AEBCB1A002D73D00EF0070B35
:1012D800C2444FF0010E0EFA0BFE9AF810B04EEA17
:1012E8000B0E8AF810E0002F3FF47AAF90E7009DCC
:1012F8000CEB060EA5EB000ABAF17F0F3FF66DAFB7
:10130800BEF13F0F3FF669AF4FEADE0B019D0AEBD6
:10131800CB1A002D6DD00EF0070BC2444FF0010E12
:101328000EFA0BFE9AF810B04EEA0B0E8AF810E08F
:1013380000293FF454AFB7E7F1EE10FA7ED44A46DD
:1013480074EEC54AF5EEC04AF1EE10FA6CD40021ED
:1013580035EEC55AB5EEC05AF1EE10FA5AD4002748
:1013680075EEC45AF5EEC05AF1EE10FA3FF529AF02
:101378000024002A3FF431AFB9E798428FDB0023FD
:101388003BE700BFAFF300807A008BFCFA210940ED
:101398000000000000806640C2444FF0010B0EF0D0
:1013A800070E0BFA0EFE9AF810B02BEA0E0E8AF80A
:1013B80010E015E7C2444FF0010B0EF0070E0BFAD0
:1013C8000EFE9AF810B02BEA0E0E8AF810E0002FE5
:1013D8003FF406AF1CE7C2444FF0010B0EF0070EB6
:1013E8000BFA0EFE9AF810B02BEA0E0E8AF810E0EF
:1013F800F7E6C2444FF0010B0EF0070E0BFA0EFE93
:101408009AF810B02BEA0E0E8AF810E000293FF483
:10141800E6AE49E777EEE66AF5EEC06AF1EE10FA55
:10142800CCBF012700279BE736EE666AB5EEC06A97
:10143800F1EE10FACCBF0121002189E776EE473A98
:10144800F5EEC03AF1EE10FACCBF0122002277E7A0
:101458000124002A3FF4C1AE49E774EEC54A0122CF
:10146800F5EEC04AF1EE10FA7FF589AE35EEC55AB1
:101478000121B5EEC05AF1EE10FA7FF591AE0127C1
:1014880097E6DDE91223134406EE102A1293139B04
:101498005B421393D8E500BF2DE9F04F87B09DF864
:1014A8004850109C2E4601959DF844509EB3994291
:1014B8002ED89946A24228D87F29164694BF0023E1
:1014C800012308E09CF810804EEA080E8CF810E022
:1014D8000136B44219D33F2EFAD8002BF8D14FEA7F
:1014E800D60C06F0070E4FF0010801EBCC1C08FAE9
:1014F8000EFE8444002DE5D19CF810B001362BEA8D
:101508000E0AB4428CF810A0E5D201318945D1D237
:1015180007B0BDE8F08FA3EB0108B8F1000FB8BF22
:10152800C8F100089942C0F04E817F2B4FF0FF3A76
:1015380094BF002601263F2A009694BF0027012762
:101548000297A6B99FB9D60802F0070C012703EB4A
:10155800C6160644002D00F0948107FA0CF796F899
:1015680010C047EA0C073774002602960096994285
:1015780000F09781464694468E46BEF17F0F16D8F6
:10158800BCF13F0F13D84FEADC070CF0070B4FF004
:1015980001090EEBC7170744002D00F0398109FA3D
:1015A8000BF997F810B049EA0B0987F81090770003
:1015B80018BFD644B84502DD46440CF1FF3C7345DC
:1015C800DBD16245D9D100260496A4EB0209009F1D
:1015D800B9F1000FB8BFC9F100093F2C94BF00262C
:1015E8000126A242C9F100080396C0F02381002F0A
:1015F80040F05081002E40F04D814FF0FF360096AC
:10160800E60803EBC6160644002D00F01E814FF0D5
:10161800010C04F007070CFA07F796F810C047EA20
:101628000C07377400260396A24200F03D81C44699
:1016380016461F4605927F2F15D83F2E13D84FEA1E
:10164800D60E06F0070B4FF0010A07EBCE1E8644B4
:10165800002D00F0E6800AFA0BFA9EF810B04AEA6C
:101668000B0A8EF810A0B8EB4C0F4FEA4C0E02DABA
:10167800ACEB090C013FBEF1000F01D0009A1644F3
:10168800BB42D8D1B442D6D1059AA1EB030EBEF124
:10169800000FB8BFCEF1000E7F2994BF4FF0000AAB
:1016A8004FF0010A99428CBF4FF001094FF0FF3902
:1016B800BAF1000F13D1039E8EB9E60801EBC616E6
:1016C8000644002D00F0D3804FF0010C04F007070A
:1016D8000CFA07F796F810C047EA0C073774049E0F
:1016E80026BB774626467F2B14D83F2E12D84FEAC2
:1016F800D60C06F0070B4FF0010803EBCC1C844412
:10170800002D73D008FA0BF89CF810B048EA0B08C3
:101718008CF810805FEA470C18BF4B44E64501DDA2
:101728007744013E9942DED1B442DCD1A2EB040EEB
:10173800BEF1000FB8BFCEF1000EA2428CBF4FF031
:1017480001084FF0FF38CEF1000CBAF1000F0ED1AE
:10175800029B63B9D30802F00707012601EBC31304
:101768000344002D7CD0BE401F7C3E431E74019B69
:10177800002B7FF4CDAE66460B467F2B12D83F2C4C
:1017880010D8E70804F0070A4FF0010903EBC71760
:101798000744A5B309FA0AF997F810A049EA0A0913
:1017A80087F81090BCEB460F4FEA460702DAA6EB23
:1017B8000E06013B07B144449942DED1A242DCD176
:1017C80007B0BDE8F08F3F2A4FF0010A94BF00260A
:1017D80001267F2B029694BF002701270097002E31
:1017E8007FF4C8AE002F3FF4AEAEC3E608FA0BFB99
:1017F8009CF8108028EA0B088CF810808AE709FA10
:101808000AFA97F8109029EA0A0987F81090C9E7A8
:1018180009FA0BFB97F8109029EA0B0987F8109042
:10182800C5E60AFA0BFB9EF810A02AEA0B0A8EF806
:1018380010A018E797BB8EBB01260096E60803EBBD
:10184800C6160644002D7FF4E2AE012704F0070C0B
:10185800039507FA0CFC377C27EA0C073774E3E694
:1018680006FA07F71E7C26EA07061E747FE701279B
:1018780004F0070C07FA0CFC377C27EA0C073774CE
:101888002DE707FA0CFC377C029527EA0C07009530
:1018980037746CE64FF0FF360096C5E601260096D1
:1018A800C5E60126049690E601260196EDE600BFFE
:1018B800012938B5044613D0022909D001B138BD31
:1018C80090ED000A18480BF05BFE84ED000A38BD65
:1018D80090ED000A15480BF033FF84ED000A38BD7F
:1018E800134A144990685368134D0344D2ED006AB3
:1018F800581CA1FB03ECA1FB00E14FEADC3CC90B3F
:1019080005FB1C3305FB110102EB830302EB81028B
:10191800D3ED037A92ED037A37EE677AE7EE267A0B
:10192800C4ED007A38BD00BF20020024A82F01248E
:10193800000000C073B2E745C0D40100002A43D0BC
:101948002DE9F04F80468A46174600262DED028B7A
:1019580083B0D8F800304FEA860B1C4D002403EB07
:1019680086031B4A93ED008A02EB860915F8013BB2
:101978008DED018A43B90134032C1DD015F8013BC4
:101988009DED018A002BF6D0E1B201A8FFF790FF88
:10199800F7EE007A99ED007A0134DDED016A77EE11
:1019A800C77ADAF80030032C5B4467EE887AE7EEF2
:1019B800267AC3ED007AE1D10136B742C9D103B026
:1019C800BDEC028BBDE8F08F704700BF2C340124BA
:1019D8002034012410B50021154800242DED028B78
:1019E80000F022F90421124800F09AF80321104867
:1019F80000F076F80E4800F08FF80E48B0EE408AF6
:101A08000BF048FD21460C4A0C480CF0B7FC0C4B77
:101A180001220C48B0EE480AC3E901420BF04AFE25
:101A2800094B0A4902481C809C7000F055F8FEE7F3
:101A3800E401002420020024005307000C0000C029
:101A4800000000C0A82F01242C34012445190008E7
:101A580010B513480024134A134904604461046212
:101A68000CF06EF80F4A114911480CF069F80D4A4C
:101A7800104911480CF064F80A4A104910480CF053
:101A88005FF8084A0F4910480CF05AF80F48104BF5
:101A98008460044A0F490360BDE810400CF050B858
:101AA800E401002400000024B1060008B50600087F
:101AB80020020024D9060008000000C0B90600086A
:101AC800A82F0124AD060008D82F012410300124C6
:101AD80078E50008BD060008143001F003BA00BF1D
:101AE80038B500F1140504462DED028B284601F0A7
:101AF800B5F9284601F0AEF92846B0EE408A01F063
:101B080097F9D0ED007AF8EE677A88EE277ABDEC7F
:101B1800028B84ED0E7A38BD143001F09BB900BFFA
:101B280038B500F1140504462DED028B284601F066
:101B380083F9284601F08EF92846B0EE408A01F074
:101B480077F9D0ED007AF8EE677A88EE277ABDEC5F
:101B5800028B84ED0E7A38BDF0B5032399B00027C7
:101B68000125129306462C4B09A81595CDE90E734D
:101B780040F20453ADF84030284BCDE91357099390
:101B880001F0DAF909A801F0B3FA002835D1244B9D
:101B980004AF04460090CDF842301023394604952E
:101BA8008DF820301F4BCDE91650CDE90650684618
:101BB800059301F02BFC0823009A01A909A8ADF8A8
:101BC80004508DF8064009940295039300F0E4F858
:101BD80000230EA938463024049302F0E1F90322C9
:101BE8004FF07E5309A906F114000B93CDE9094281
:101BF800049A01F0EBF819B0F0BD40F60132084B39
:101C0800169704AFADF824200998CDF842301795FF
:101C180000F082F8DCE700BF0402040403030001BB
:101C2800040604030704010B2DE9F04304462DEDD7
:101C3800028B83B0002948D0012140F20112002311
:101C48000091ADF804208DF80630304A0126304B5B
:101C5800271D304904F12908626040F20272A3602E
:101C680040F60663E16004F125092682A4F82520E0
:101C780084F82760A4F8293084F82B6002F0A4FCCB
:101C88006946054648B304F130008DF8066002F055
:101C980003FC072D34D104F114052046FFF75CFF3F
:101CA800284601F0D7F82846B0EE408A01F0C0F87F
:101CB800D0ED007AF8EE677A88EE277A84ED0E7A0E
:101CC80003B0BDEC028BBDE8F08340F20113009134
:101CD8008DF80610ADF80430B7E704F1300002F0D3
:101CE800DBFB3946204601F0DBFD484601F024F9CC
:101CF800404601F021F904F1120000F077F9CAE733
:101D08003946204601F0CCFDC5E700BF05080509A6
:101D180005070506050A060610B584B00346012422
:101D2800ADF8040003A8ADF80C30ADF80E4001F092
:101D380003F9214603A801F0E9F9204602F0E0FA88
:101D4800002103A801F0E2F9204602F0D9FA214661
:101D580003A801F0DBF904B010BD00BF10B5C2F351
:101D6800002384B00C46017C8DF80D2043EA440220
:101D7800FA2402238DF80C2003AA009401F0DCFB5E
:101D880018B10124204604B010BD04460A2002F010
:101D9800B7FA204604B010BD034670B543F8042BCB
:101DA800044684B007C983E80700A37983B91A21D8
:101DB8000B461E22FA2523742046ADF80C20022378
:101DC80003AA009501F0B8FB28B1012004B070BD4A
:101DD8001B210B46EDE70A2002F092FA4FF4B852A5
:101DE80000950223ADF80C20204603AA217C01F0BF
:101DF800A3FB0028E9D10A2002F082FA41F202721C
:101E080000950223ADF80C20204603AA217C01F09E
:101E180093FB0028D9D10A2002F072FA0422009517
:101E28000223ADF80C20204603AA217C01F084FB94
:101E38000028CAD10A2002F063FA0622009502237C
:101E4800ADF80C20204603AA217C01F075FB002880
:101E5800BBD10A2002F054FA41F20822009502236D
:101E6800ADF80C20204603AA217C01F065FB002870
:101E7800ABD10A20064602F043FA0095022303AAD2
:101E8800217C2046ADF80C6001F056FB00289CD15F
:101E9800304602F035FA009522790C232046002AB4
:101EA8008DF80C3003AA4FF0020314BF62214221BF
:101EB8008DF80D10217C01F03FFB002885D13046BC
:101EC80002F01EFA2279D4E902310B43DBB20AB9D7
:101ED80043F0400362790AB143F020030E22FA2549
:101EE8008DF80D302046009502238DF80C2003AAAA
:101EF800217C01F021FB00287FF467AF0A2002F063
:101F0800FFF9102200950223ADF80C20204603AA01
:101F1800217C01F011FB00287FF457AF0A2002F062
:101F2800EFF9122100950223ADF80C1003AA217CC9
:101F3800204601F001FB00287FF447AF0A2002F099
:101F4800DFF9012209212046FFF708FF003818BFF2
:101F580001203BE7F0B5102387B0234C0122002570
:101F68000126002702A920460195CDE902234FF456
:101F78008052CDE9046708F0D1FA642002F0CAFD66
:101F880002A94FF480522046CDE9046702261027A3
:101F9800CDE9026708F0C2FA0322102302A92046FD
:101FA800CDE9022300230422CDE904234FF4805213
:101FB80008F0B4FA40F23223042202A90193102354
:101FC8002046CDE90223019A012305924FF480525D
:101FD800049308F0A3FA40F60601204608F0BEFA7A
:101FE800284607B0F0BD00BF383401241C4B00223E
:101FF8001C494FF0400C30B5054689B002205960A5
:1020080007219A601A620124DA620A224FF4006EEC
:10201800DC6006922022CDE9000104200821CDE9E8
:10202800020103201021CDE9040108206946C3E913
:1020380004024FF4C072181DC3E906C24FF480525F
:10204800C3E909E208F040FA38B92846FFF782FFE9
:10205800003818BF012009B030BD204609B030BD96
:102068003434012440410052614A0021D0B513683C
:102078008EB00A91002B40F0B9805E4B01214FF6DB
:1020880083700C2411600221D3F8D4200026032782
:1020980042F48052C3F8D420D3F8D42002F48052FA
:1020A8000092009AD3F8E02042F01002C3F8E02032
:1020B800D3F8E02002F010020192019AD3F8E02050
:1020C80042F04002C3F8E020D3F8E02002F04002DA
:1020D8000292029AD3F8E02042F00802C3F8E02006
:1020E800D3F8E02002F008020392039AD3F8E02024
:1020F80042F48072C3F8E020D3F8E02002F4807242
:102108000492049AD3F8E02042F08002C3F8E02059
:10211800D3F8E02002F080020592059AD3F8E02077
:1021280042F02002C3F8E020D3F8E02002F02002B9
:102138000692069AD3F8E02042F00402C3F8E020A1
:10214800D3F8E0300C9403F0040307930323079AB1
:102158000B93CDE9080108A9274803F081FD48F24F
:102168003712022308A925480C94CDE90823CDE9A4
:102178000A6703F075FD4CF20372022308A9204890
:102188000C94CDE90823CDE90A6703F069FD40F214
:10219800FF62022308A91B480C94CDE90823CDE966
:1021A8000A6703F05DFD4FF60C72022308A9164872
:1021B8000C94CDE90823CDE90A6703F051FD4FF6E9
:1021C8003F02022308A911480C94CDE90823CDE960
:1021D8000A6703F045FD2022022308A90A480C9447
:1021E800CDE90A67CDE9082303F03AFD0EB0D0BD6A
:1021F80030340124004402580010025800180258D4
:10220800000C025800200258001C02580014025802
:102218002DE9F04FDFF8108406460D46144608F104
:1022280014002DED028B89B000AF01F0B1FFD8F892
:10223800143073B3D8F81830D8F80490002B4369D9
:102248000BBF4FF0080A4FF0100A4FF0020B4FF087
:10225800040BB9F1000F2AD0A200EA46012B02F1C3
:10226800070222F00702ADEB020D6846ADEB020D46
:10227800694600F03F81022B00F0D680002B6FD01A
:102288002246C847D5462437BD46BDEC028BBDE87B
:10229800F08FD8F81830002BF5D0D8F804904FF00C
:1022A800080A4FF0020B4369B9F1000FD4D1FB6162
:1022B800D8F80030BB61002BE5D0D54801F0DAFF33
:1022C8006B46BBF1020F786108EE103AFB6900F02B
:1022D80083816A465146A2EBC40295466200EA46EB
:1022E800B2FBFBF2AAEBC40085460AEB8200EE467D
:1022F800F861ADEB010DF8690EEB820CC7F810C060
:10230800EC46ADEB010D00EB8201CCF80400CCF8F3
:10231800081001EB82013869E946CCF80C1000EB93
:102328008201CCF800A001EB8202C9E900E0C9E90A
:102338000212012B00F06483022B00F06C82002B48
:1023480000F08081620849466046BB69984718EEEC
:10235800103A24379D46BD46BDEC028BBDE8F08F90
:10236800002C8DD01A46D8ED0B6A9FEDB27A8446C0
:10237800331D36F922E00CF1080C07EE90EA33F928
:1023880022E00232F8EEE77A944267EE877A67EE47
:10239800A67A4CED027A07EE90EAF8EEE77A67EE55
:1023A800877A67EEA67A4CED017AE2D8F96122467F
:1023B800C847984ED8ED046A0020F9692B1D9FED97
:1023C8009E7A9FED9E6ADFED9E5A22E0F4EEC67A71
:1023D800F1EE10FAC0F2C88447F6FE72D1ED017A28
:1023E80045F8202066EEA77AF4EEC77AF1EE10FAE7
:1023F80040F2F080F4EEC67AF1EE10FAC0F2D5841D
:1024080047F6FE7243F820200230083184427FF6F6
:1024180039AFD1ED007A66EEA77AF4EEC77AF1EE1D
:1024280010FAD3D83246D9E7002C3FF429AFD8EDBB
:102438000B6A84469FED787A0022331D8E4656F843
:1024480022100CF1080C07EE901A53F822100232F1
:10245800F8EEE77A944267EE877A67EEA67A4CED53
:10246800027A07EE901AF8EEE77A67EE877A67EE57
:10247800A67A4CED017AE2D871462246C7F81CE0EC
:10248800C847664ED8ED046A0020F9692B1D9FEDF8
:102498006A7A9FED6A6ADFF894C120E0F4EEC67AA2
:1024A800F1EE10FAC0F279843246D1ED017A45F89E
:1024B800202066EEA77AF4EEC77AF1EE10FA40F221
:1024C8008780F4EEC67AF1EE10FAC0F25E843246E6
:1024D80043F820200230083184427FF6D3AED1ED94
:1024E800007A66EEA77AF4EEC77AF1EE10FAD5D83C
:1024F8006246DAE7002C3FF4C3AED8ED0B6A864695
:102508009FED477A4FF0000C331D56F82C200EF142
:10251800080E82F40002A2F5000207EE902A53F892
:102528002C200CF1020CF8EEE77A82F400026445E4
:10253800A2F5000267EE877A67EEA67A4EED027A78
:1025480007EE902AF8EEE77A67EE877A67EEA67AC2
:102558004EED017AD9D8F9612246C847314ED8EDF7
:10256800046A0020F9692B1D9FED337A9FED336AC9
:10257800DFF8BCC01FE0F4EEC67AF1EE10FAC0F244
:10258800FC833246D1ED017A45F8202066EEA77A21
:10259800F4EEC77AF1EE10FA18D9F4EEC67AF1EE35
:1025A80010FAC0F2DA83324643F8202002300831AC
:1025B80084427FF667AED1ED007A66EEA77AF4EE34
:1025C800C77AF1EE10FAD6D86246DBE76246EBE747
:1025D80062467DE7324615E7A100D6466208073114
:1025E80021F00701ADEB010DEA46ADEB010D69469F
:1025F800ADEB0E0D0AEB8200EC46ADEB0E0D01EBD8
:102608008202F861E946CCE900A0C9E9001290E627
:10261800843401240280FFFF000000300082FF7F25
:102628000000003482FF7F006C340124007E0080AB
:102638007E0080FF0000003804FF7FBF04FF7F3F5B
:1026480000FEFF46002C00F0C982BBF1020FD8F84B
:10265800202000F0FA827969C7F8049002EB810E15
:102668005FED0C5A8A00DCF808100EF104007A615C
:102678001A46DCF80C303B61331DD7F810903D61E9
:10268800FD69C7E902CB8C46834636F92210D8ED9E
:102698000B7A06EE101A33F9221006EE901A3EF95C
:1026A8002210B8EEC66A07EE101AF8EEE66A3BF991
:1026B8002210B8EEC77A26EE256A66EEA56A27EEDE
:1026C800257A26EE276A66EEA76A27EE277A07EEAE
:1026D800901A51080232F8EEE77A0AEB8100944228
:1026E80080ED006A05EB810067EEA57AC0ED006A0F
:1026F8000CEB810009EB810180ED007A98ED0B7AF3
:1027080067EE877AC1ED007ABFD8D7F804903D69A3
:10271800D7E902CB60466208BB6949469847D8F8B2
:1027280028307A69D8ED046A1A441FED3D7A1FED06
:102738003D6A2B1D904602F1040A5FED3F5A0022C4
:10274800A84ED9E900EC51E0F4EEC67AF1EE10FAA1
:10275800C0F2C78247F6FE7045F822000CEB010074
:10276800D0ED007A66EEA77AF4EEC77AF1EE10FAA9
:102778004BD9F4EEC67AF1EE10FAC0F2BA8247F6F7
:10278800FE70BBF1020F43F822002BD0D9F80800E5
:102798000844D0ED007A66EEA77AF4EEC77AF1EE37
:1027A80010FA36D9F4EEC67AF1EE10FAC0F2CD82FC
:1027B80047F6FE7048F82200D9F80C000144D1ED24
:1027C800007A66EEA77AF4EEC77AF1EE10FA1ED90F
:1027D800F4EEC67AF1EE10FAC0F2AF8247F6FE7157
:1027E8004AF82210023294427FF6B1AD51080EEB3E
:1027F80081008900D0ED007A66EEA77AF4EEC77AF8
:10280800F1EE10FAA0D83046A6E73046B9E73146CF
:10281800E6E73046CEE7002C00F0E081BBF1020F7E
:10282800D8F8203000F0E1817A69DCF8081003EB71
:10283800820EC7F804909300DFED6B5A0EF1040086
:1028480000227B61DCF80C303B61331DD7F8109017
:102858003D61FD69C7E902CB8C46834656F82210D4
:10286800D8ED0B7A07EE101A53F82210B8EEC76AA3
:1028780007EE101A5EF82210F8EEC76A07EE101A73
:1028880026EE256A5BF82210B8EEC77A66EEA56ACE
:1028980026EE276A27EE257A66EEA76A27EE277ABC
:1028A80007EE901A51080232F8EEE77A0AEB810037
:1028B800944280ED006A05EB810067EEA57AC0EDD1
:1028C800006A0CEB810009EB810180ED007A98ED3C
:1028D8000B7A67EE877AC1ED007ABFD8D7F80490F3
:1028E8003D69D7E902CB60466208BB69494698470B
:1028F800D8F828307A69D8ED046A1A449FED3E7AF0
:102908009FED3E6A131D9246DFF8E4C00022FB618A
:102918002B1D364ED9E9008E4EE0F4EEC67AF1EE64
:1029280010FAC0F2FC81304645F822000EEB010097
:10293800D0ED007A66EEA77AF4EEC77AF1EE10FAD7
:1029480049D9F4EEC67AF1EE10FAC0F2EF813046BA
:10295800BBF1020F43F822002AD0D9F80800084436
:10296800D0ED007A66EEA77AF4EEC77AF1EE10FAA7
:1029780035D9F4EEC67AF1EE10FAC0F2C9813046C4
:102988004AF82200D9F80C000144D1ED007A66EE2D
:10299800A77AF4EEC77AF1EE10FA1ED9F4EEC67AE9
:1029A800F1EE10FAC0F2AD813146F86940F8221014
:1029B800023294427FF6CBAC510808EB81008900C3
:1029C800D0ED007A66EEA77AF4EEC77AF1EE10FA47
:1029D800A3D86046A8E76046BAE76146E5E76046DF
:1029E800CEE700BF0280FFFF000000300082FF7FBB
:1029F800007E00800000003404FF7FBF04FF7F3F9B
:102A0800002C00F0EB807A690021D8F82030C7F854
:102A1800109003EB820ED7F81C909300FD610EF125
:102A280004021FED0C6A7B61331D154656F8212000
:102A38004808D8ED0B6ABBF1020F82F40002A2F538
:102A4800000207EE902A53F8212082F40002B8EE23
:102A5800E77AA2F5000227EE067A07EE902A0AEB3B
:102A68008002F8EEE77A27EE267A67EE867A82ED1C
:102A7800007A09EB80024FEA800067EEA67AC2ED81
:102A8800007A27D05EF8212082F40002A2F5000225
:102A980007EE902A55F8212082F40002B8EEE77A72
:102AA800A2F5000227EE067A07EE902ADCF8082045
:102AB800F8EEE77A024427EE267A67EE867A82ED08
:102AC800007A98ED0B7ADCF80C2067EE877A0244DE
:102AD800C2ED007A02318C42A8D8D7F8109060462F
:102AE8006208BB694946FD699847D8F828307A6971
:102AF800D8ED046A1A441FED407A1FED406A131D91
:102B08009246DFF8C4C20022FB612B1DAB4ED9E907
:102B1800008E4EE0F4EEC67AF1EE10FAC0F2C580EF
:102B2800304645F822000EEB0100D0ED007A66EE43
:102B3800A77AF4EEC77AF1EE10FA49D9F4EEC67A1C
:102B4800F1EE10FAC0F2BF803046BBF1020F43F835
:102B580022002AD0D9F808000844D0ED007A66EEA1
:102B6800A77AF4EEC77AF1EE10FA35D9F4EEC67A00
:102B7800F1EE10FAC0F2AE8030464AF82200D9F8D9
:102B88000C000144D1ED007A66EEA77AF4EEC77A1C
:102B9800F1EE10FA1ED9F4EEC67AF1EE10FAC0F290
:102BA8008B803146F86940F82210023294427FF651
:102BB800CEAB510808EB81008900D0ED007A66EEB3
:102BC800A77AF4EEC77AF1EE10FAA3D86046A8E720
:102BD8006046BAE76146E5E76046CEE722464946E1
:102BE8006046BB699847FFF7B2BBC7F810B0002230
:102BF80098ED0B6A331DDFED726AD7F81CB078695F
:102C080056F8221007EE901A53F82210B8EEE77A19
:102C180007EE901A51080232F8EEE77A27EE267A84
:102C28000AEB810E94420BEB810167EEA67A27EE40
:102C3800067A67EE867A8EED007AC1ED007ADFD8E3
:102C48008300D7F810B07B614DE61A46C7F810B07C
:102C580098ED0B6A331DDFED5B6AD7F81CB0786915
:102C680036F9221007EE101A33F9221007EE901ADF
:102C7800B8EEC77A51080232F8EEE77A27EE267ADC
:102C88000AEB810E94420BEB810167EEA67A27EEE0
:102C9800067A67EE867A8EED007AC1ED007ADFD883
:102CA8008300D7F810B07B6134E5F0EE675AFEEE8A
:102CB800E45A15EE900A34E7F0EE675AFEEEE45A4D
:102CC80015EE901A6EE7F0EE675AFEEEE45A15EE2E
:102CD800900A3AE7F0EE675AFEEEE45A15EE900ACB
:102CE8004BE767EEA57AFDEEE77A17EE900A00B299
:102CF80032E567EEA57AFDEEE77A17EE900A00B2A4
:102D08003FE5F0EE675AFEEEE05A15EE901A4CE6F3
:102D1800F0EE675AFEEEE05A15EE900A30E6F0EE55
:102D2800675AFEEEE05A15EE900AFDE5F0EE675A96
:102D3800FEEEE05A15EE900A0AE667EEA57AFDEE79
:102D4800E77A17EE901A09B24AE567EEA57AFDEE22
:102D5800E77A17EE900A00B22CE5F0EE675AFEEE1D
:102D6800E45A15EE902A1FE467EEA57AFDEEE77A9D
:102D780017EE902A12B2FFF731BBF0EE675AFEEE5B
:102D8800E45A15EE902AFFF7FDBBF0EE675AFEEE07
:102D9800E05A15EE902AFFF79BBBF0EE675AFEEE5D
:102DA800E05A15EE902AFFF780BB67EEA57AFDEE94
:102DB800E77A17EE902A12B2FFF724BB82FF7F0052
:102DC80000000030000000387E0080FF30B5154C50
:102DD800154685B0046004F1080C01AB07C98CE8FE
:102DE8000700D4ED047AF5EEC07A83E80700F1EE27
:102DF80010FA14DDF7EE006A86EEA77A84ED0B7AF6
:102E08006DB1204640F8145F01F0C2F90649036924
:102E18000020064AE1616262E36005B030BD01202E
:102E280005B030BD6C3401240020003000000030B3
:102E380000680830704700BFB1F5807F03680A4614
:102E480028BF4FF48072B1F5807F9A6094BF00204C
:102E5800012070470068143001F0FAB970B50468B1
:102E68008AB06369E160CBB104F11405284601F02A
:102E78008FF98446EE46E668BCE80F00AEE80F001E
:102E8800BCE80F00AEE80F009CE803008EE80300E2
:102E980069462846049601F083F8F8B9A069D8B1C4
:102EA80004F11805284601F073F98446EE46E468F3
:102EB800BCE80F00AEE80F00BCE80F00AEE80F005A
:102EC8009CE803008EE8030069462846049401F054
:102ED80067F8003818BF01200AB070BD01200AB099
:102EE80070BD00BF30B5046883B00D46A3694BB10F
:102EF800A3680020A26A216A9B00009004F11800D0
:102F080001F048F9A3680748626A9B00E1690090EC
:102F180004F1140001F03EF90020C4E9005003B0A8
:102F280030BD00BF19220008024B0022C3E9052268
:102F3800704700BF6C3401248378022B30B50446F7
:102F48008FB037D0032B33D0012B31D000230A9315
:102F5800E378012B2AD0022B28D000230B930023DF
:102F680020460C9301F0B4FC0546204601F0B8FC5D
:102F780023780990082B13D8DFE803F01F3245584F
:102F88006B7E91A40500594BD3F8E02042F480727F
:102F9800C3F8E020D3F8E03003F480730893089B6B
:102FA80009A9284602F05CFE0FB030BD0B93D6E7A6
:102FB8000A93CDE711230A93CAE74C4B09A928467F
:102FC800D3F8E02042F00102C3F8E020D3F8E03063
:102FD80003F001030093009B02F042FE0FB030BDE6
:102FE800424B09A92846D3F8E02042F00202C3F870
:102FF800E020D3F8E03003F002030193019B02F0D4
:103008002FFE0FB030BD394B09A92846D3F8E02070
:1030180042F00402C3F8E020D3F8E03003F00403E0
:103028000293029B02F01CFE0FB030BD2F4B09A982
:103038002846D3F8E02042F00802C3F8E020D3F88D
:10304800E03003F008030393039B02F009FE0FB07E
:1030580030BD264B09A92846D3F8E02042F01002DB
:10306800C3F8E020D3F8E03003F010030493049B86
:1030780002F0F6FD0FB030BD1C4B09A92846D3F865
:10308800E02042F02002C3F8E020D3F8E03003F05B
:1030980020030593059B02F0E3FD0FB030BD134BF1
:1030A80009A92846D3F8E02042F04002C3F8E020FE
:1030B800D3F8E03003F040030693069B02F0D0FDFE
:1030C8000FB030BD094B09A92846D3F8E02042F0DB
:1030D8008002C3F8E020D3F8E03003F080030793C0
:1030E800079B02F0BDFD0FB030BD00BF0044025881
:1030F80038B5054601F0ECFB0446284601F0F0FB24
:1031080001462046BDE8384002F0B2BF70B5064619
:103118000D4601F0DDFB0446304601F0E1FB2A1EB6
:103128000146204618BF0122BDE8704002F0A6BF44
:103138000023122270B586B0CDE9022304930368F8
:10314800032B01D804230593061D841D304601F086
:10315800BFFB0546304601F0C3FB034601A92846DC
:10316800019302F07DFD204601F0B2FB03462046A4
:103178001C4601F0B5FB01A903462046019302F065
:103188006FFD06B070BD00BF634A0368934210B577
:103198008CB028D0614A934258D0614A934200F0DB
:1031A8009480604A934201D00CB010BD5E4C5F48D9
:1031B800D4F8E03043F00203C4F8E030D4F8E0304B
:1031C80003F002030A930A9BFFF7B2FFD4F8F43026
:1031D80043F08003C4F8F430D4F8F43003F08003EB
:1031E8000B930B9BE0E7504C5148D4F8E03043F088
:1031F8000203C4F8E030D4F8E03003F0020301938E
:10320800019BFFF795FFD4F8E83000221F2043F414
:1032180000131146C4F8E830D4F8E83003F400137A
:103228000293029BD4F8D83043F00103C4F8D83095
:10323800D4F8D83003F001030393039B01F094FC06
:103248001F200CB0BDE8104001F0CCBC364C39480A
:10325800D4F8E03043F08003C4F8E030D4F8E0302C
:1032680003F080030493049BD4F8E03043F0020396
:10327800C4F8E030D4F8E03003F002030593059B6E
:10328800FFF756FFD4F8E8300022212043F48003EA
:103298001146C4F8E830D4F8E83003F48003069304
:1032A800069BD4F8D83043F00103C4F8D830D4F8DA
:1032B800D83003F001030793079B01F055FC212048
:1032C8000CB0BDE8104001F08DBC1B48FFF730FF83
:1032D800154B00224820D3F8E840114644F4000476
:1032E800C3F8E840D3F8E84004F400040894089CC4
:1032F800D3F8D84044F00104C3F8D840D3F8D83004
:1033080003F001030993099B01F02EFC48200CB03F
:10331800BDE8104001F066BC005400400058004071
:10332800005C0040001C0058004402582837012463
:10333800A034012478350124503601242DE9F043C6
:103348001A4B87B000254FF010099E46EC46184BE3
:10335800FF22E04667461A700EF118060EF1300497
:10336800CDE90055CDE90255ADF80090BCE80F0055
:10337800CDE90455AEE80F009CE803000095ADF8D0
:1033880000908EE80300B8E80F000FC69CE8030021
:103398000095ADF8009086E803000FCF0FC49CE8B5
:1033A800030084E8030007B0BDE8F08304000024AC
:1033B8009C34012410B5EFF3108472B6084B1A78C8
:1033C800120602D504B962B610BD1B78D82205488A
:1033D8005BB202FB0300143002F0F0F8F2E700BF22
:1033E8009C340124A0340124014803F0DFBC00BF51
:1033F8002C350124014803F0D9BC00BF0436012450
:10340800014803F0D3BC00BFDC3601242DE9F043AA
:103418000F68D8243F4D85B007FB04F4032F05EB54
:103428000403036040DCCB680E46012B3CD84DD02A
:103438004FF0D808B646DFF8FC9008FB0758BEE8FE
:103448000F00C446ACE80F00DEF800300DF1100E96
:10345800CCF80030D8F808C099E80F000EE90F0042
:103468000EEB8703BCF1010F53F8103CC8F88C3001
:1034780031D0BCF1020F42D0BCF1000F35D0317C05
:103488008C34D823002201202C4403FB0753490025
:10349800C3E92602C3F894102046C3E92822C3E9E9
:1034A8002A2203F075FA18B1012005B0BDE8F083AF
:1034B8000146204603F086FC0028F5D10146204647
:1034C80003F0AAFC003818BF0120EEE70B7C103B84
:1034D800672BADD9E8E701F075F80F4B98420CBFA0
:1034E8000E4B0F4BC8F89030C9E701F06BF80A4B48
:1034F80098420CBF0B4B0C4BC8F89030BFE701F05B
:1035080061F8054B98420CBF084B094BC8F890303E
:10351800B5E700BFA0340124000E27072D0FB030F7
:103528003211D0205F4390608A62E030200BA010F7
:103538001A09801048E400082DE9F041D0F800800D
:1035480082B00D4617461E4608F18C04204603F04B
:1035580035FC2028FAD1D8F80C3073B96D00204614
:10356800089C33463A46A9B2009403F067FA00383B
:1035780018BF012002B0BDE8F081089B32463946E9
:10358800204603F02FFBF2E7044B10221A7483F84D
:10359800E82083F8C02183F898227047A0340124DA
:1035A80030B5002395B04FF48071062204460B9382
:1035B80006921393CDE90C13CDE90E33CDE91133FF
:1035C80001F002F807282BD004F1100541F28832E7
:1035D80006A9284604F032FA28B10123184684F8CF
:1035E8005C3015B030BD0222022306A92846CDE979
:1035F800002310220123CDE9022300224FF4800387
:10360800CDE9042305224FF0807306926A460F9392
:1036180041F2883304F07EFB0028DED115B030BDBE
:103628000323012084F85C3015B030BD0000000091
:1036380070B50023A4B04FF080724FF48075044633
:10364800ADF806300D93CDE910320122CDE90E53C5
:10365800CDE91223CDE91433002943D0F02300F13A
:10366800100508AEADF80630C02341F28832314665
:103678002846089304F0E2F928B10123184684F893
:103688005C3024B070BD41F288320DF10601284645
:1036980004F03EFA03460028EFD105224FF480716A
:1036A8001E93284616924FF080721B9321931F9207
:1036B80002AA9FED1F7BCDE91C13CDE922338DEDC6
:1036C800027B9FED1D7B41F2883316A98DED047BAB
:1036D8009FED1B7B8DED067B04F01CFB0028CCD1F5
:1036E80024B070BD00F1100508AE612341F28832A4
:1036F80031462846089304F0A1F90028BDD141F2CB
:1037080088320DF10601284604F080FA0028B4D169
:10371800BDF80630204623F0780343F04003ADF8A7
:103728000630FFF73DFF00289ED0A6E7AFF30080E4
:10373800000000000100000010000000010000006F
:1037480000000000000040002DE9F04F00234FF476
:10375800807501264FF0807804462DED028BABB0C2
:103768008DF8073013932193299314950E96CDF86D
:103778005C80CDE91533CDE91863CDE91A33CDE97D
:103788002253CDE92433CDE9273306231C9300F0D7
:103798001BFF072808D004F1100741F288321CA942
:1037A800384604F04BF940B10123184684F85C30E0
:1037B8002BB0BDEC028BBDE8F08F4FF0020A4FF042
:1037C800020B4FF0050941F2883308AA1CA93846B4
:1037D800CDF89480CDF870909FED2D8BCDE908AB96
:1037E8004FF0000A4FF4800B8DED0A8BCDE90CAB3E
:1037F80004F090FA0028D7D141F2883238460EA951
:1038080004F01CF90028CFD1402341F288320DF191
:10381800070138468DF8073004F07AF90028C3D13B
:1038280041F288330EA902AA3846CDF83890CDF86F
:103838005C809FED197B8DED048BCDE906AB8DED9A
:10384800027B04F067FA03460028ADD1CDF87090EA
:103858004FF00109CDF894804FF00008219308AA91
:1038680029931CA938462295CDE92333CDE927337E
:1038780041F288338DED0A8BCDE90CABCDE908898F
:1038880004F048FA002893D0304684F85C608FE74B
:10389800100000000100000040000000400000008F
:1038A8002DE9F043624CA3B00D46046000F08CFE95
:1038B800072800F0A980286823466968AA6807C312
:1038C8001E46AB8926F8043B3046257B677B04F00F
:1038D80097F8E0B9574B012D4FF00108E0612361DB
:1038E80014BF4FF480134FF40003C4E9058893FA1A
:1038F800A3F3B3FA83F34FF48079013BC4F824901F
:10390800C4E90B003046236204F00EF838B10122F6
:10391800134684F85C20184623B0BDE8F08366237C
:103928000B90139041F2883206A90693CDE90C90CA
:10393800CDE90E00CDE91100304604F07FF80028EB
:10394800E5D1992341F2883206A93046069304F05E
:1039580075F80028DBD105231C9019906A4614934A
:103968004FF08073219014A91D9341F288339FED85
:103978002A7BCDE91A90CDE91F008DED007B9FEDE4
:10398800287B30468DED027B9FED277B8DED047BF8
:1039980004F0C0F90028BAD129462046FFF748FEAE
:1039A8000028B4D12046FFF7CFFE03460028AED149
:1039B800002FB0D1189330460027002606AA14A974
:1039C800CDF86890CDE91F33EB2314934FF440638F
:1039D8001B934FF4005317934FF440431C93A023B9
:1039E8001693062319934FF0805321934FF0407399
:1039F800CDE906671D9304F005FA034600288AD02E
:103A0800434684F85C8086E701230322184684F83D
:103A18005C2023B0BDE8F083000000000100000036
:103A2800100000000100000000000000000040003D
:103A380000380124005000522DE9F04F8FB0414B5F
:103A48000024026800AF9A427C63C7E90944C7E9C9
:103A58000B4403D03C37BD46BDE8F08F3A4B40F6E7
:103A680009213A48EB46D3F8D42007F11C0607F1A0
:103A7800220A4FF0020942F480424FF00308C3F8CB
:103A8800D420D3F8D42002F48042BA60BA68D3F8BC
:103A9800E02042F04002C3F8E020D3F8E02002F032
:103AA8004002FA60FA68D3F8E02042F02002C3F836
:103AB800E020D3F8E02002F020023A613A69D3F816
:103AC800E02042F01002C3F8E020D3F8E02002F032
:103AD80010027A617A69D3F8E02042F00202C3F852
:103AE800E020D3F8E030F86103F002033984BB61C9
:103AF800174B7B60BB697B6853F8040F7B6000F051
:103B0800E7FE7B680546186800F0EAFE16F8013BF8
:103B1800786207F124012846C7F830807B63C7E93B
:103B28000A9402F09DF85645E5D100225C20114622
:103B380001F01AF85C2001F055F83C37DD46BD4627
:103B4800BDE8F08F00500052004402580A0A0909E3
:103B58005C380124114B02689A4200D07047104A21
:103B680070B5D2F8D4300F4C23F4804304F1180612
:103B7800C2F8D43054F8040F00F0AAFE05462068B5
:103B880000F0AEFE0146284602F0AAF9B442F1D18F
:103B98005C20BDE8704001F033B800BF005000520F
:103BA800004402585C380124014804F0B7B900BF4A
:103BB80010380124084B1A1D981D03F1080110B490
:103BC8009C1C9A6603F10A02C3E91834C3E91B0175
:103BD8005DF8044B5A6770470038012438B503680C
:103BE80071B9026A00F1280500F5AC74012A0CBF0E
:103BF800002140218BBB1D4B5722C0F858310DE0E6
:103C0800426A00F1C00500F5E874012A0CBF0021E2
:103C18004021EBB1164B5A22C0F8D0310023204680
:103C2800C4E901214FF480524FF4806163626261FC
:103C38004FF48042C4E903314FF48073C4E906238A
:103C48004FF40033236201F041F958B1FFBEFEE79B
:103C5800084B5822C0F8D031E0E7074B5922C0F88A
:103C68005831DBE7C5E92044A56338BD10000240A0
:103C78007000024028000240580002402DE9F0433D
:103C8800821D05468BB0031D05F10A010830CDE9F8
:103C9800052305F10C02AB69CDE907010992002B58
:103CA8003DD0EB69B3FA83F84FEA58180123022292
:103CB80005AE0AAF4FF006090393CDE9012356F884
:103CC800044B2B792278934216D02B68F3B1012B41
:103CD80002D1F2B10A230493204600F001FE034604
:103CE8002046009300F0F4FD694601F0B9FFBE429A
:103CF800E5D10BB0BDE8F083697963789942E4D1E6
:103D0800B8F1000FF3D02B68002BE0D1CDF810905C
:103D1800E2E76378022B14BF0A230823DBE74FF09E
:103D28000108C3E7534A0368934230B505468BB090
:103D380055D02032934252D04F4A934204D0203279
:103D4800934201D00BB030BD4C4C4D48D4F8E03014
:103D580043F00103C4F8E030D4F8E03003F0010385
:103D68000593059BD4F8E03043F00803C4F8E0302D
:103D7800D4F8E03003F008030693069BD4F8E0304B
:103D880043F04003C4F8E030D4F8E03003F04003D7
:103D98000793079BD4F8F03043F40003C4F8F030DD
:103DA800D4F8F03003F400030893089BFFF766FF8C
:103DB800D4F8D830296843F001032F4A3048C4F8B2
:103DC800D830891AD4F8D83018BF012103F001037C
:103DD8000993099B0BB0BDE83040FFF7FFBE274CA5
:103DE8002848D4F8E03043F00103C4F8E030D4F8B0
:103DF800E03003F001030093009BD4F8E03043F077
:103E08001003C4F8E030D4F8E03003F01003019355
:103E1800019BD4F8E03043F04003C4F8E030D4F814
:103E2800E03003F040030293029BD4F8F03043F4EF
:103E38008003C4F8F030D4F8F03003F4800303931F
:103E4800039BFFF71BFFD4F8D830296843F0010320
:103E5800084A0C48C4F8D830891AD4F8D83018BFA2
:103E6800012103F001030493049B0BB0BDE830402B
:103E7800FFF7B4BE04580140045C014000440258F6
:103E8800D43A012478380124014801F097BB00BFD7
:103E9800D0390124014801F091BB00BF483A012400
:103EA800014801F08BBB00BF2C3C0124014801F004
:103EB80085BB00BFA43C01241A4A0368934210B48E
:103EC8000BD02032934208D0174A934216D02032A2
:103ED800934213D05DF8044B7047144B0022D3F87B
:103EE8005442C3F85822002CF4D0D3F84802D3E93E
:103EF800931223465DF8044B520818470B4B0022D7
:103F0800D3F8B044C3F8B424002CE3D0D3F8AC24DD
:103F1800D3F8A814D3F8A404520823465DF8044B38
:103F2800184700BF04580140045C01407838012458
:103F3800184A0368934210B40BD02032934208D039
:103F4800154A934217D02032934214D05DF8044B9F
:103F58007047124BD3E994245208C3F85822002C16
:103F6800F4D0D3E99201234601EB820100EB8200F1
:103F78005DF8044B1847094BD3F8AC24D3F8B04488
:103F88005208C3F8B424002CE0D0D3F8A814D3F80E
:103F9800A404E8E704580140045C0140783801248F
:103FA8002DE9F04F0C684FF41776754F87B004FB76
:103FB80006F6012C07EB060AC0F800A000F3A08063
:103FC8000D468E464FF00008D44669A3D3E9002376
:103FD80069A1D1E90001CDE9022306ABCAF85082F4
:103FE80003EB8403CDE9040153F810BC53F8083CF3
:103FF800CAE992880193BEE80F00ACE80F00BEE85A
:104008000F00ACE80F00019B9EE80300CAF828B037
:10401800CAF8C0308CE803002B69042B0CD8DFE801
:1040280003F0737D879103004FF41773554A03FB20
:1040380004739A64C3F8E020AA692B6A002A43D063
:10404800002B4FF4177308BF022203FB047318BF39
:104058000322DA6201221A63EA696B6A002A40D1F4
:10406800191E4FF4177318BF012103FB0473C3E92A
:1040780031126B69022B05D8434A12F80380434A70
:1040880052F823904FF4177306F128004246494628
:1040980003FB04740023384463646363E365C4F872
:1040A800DC30C4F8CC30C4F8F430C4E90F33C4E9C8
:1040B8001533C4E93533C4E93B33022305F0A2FFC5
:1040C800002849D0FFBEFEE7191E4FF4177318BF2A
:1040D800012103FB0473C3E90B12EA696B6A002A26
:1040E800BED0002B4FF4177308BF022203FB0473E2
:1040F80018BF0322C3F8C4200122C3F8C820B8E7B8
:10410800012007B0BDE8F08F4FF417734FF4FA524F
:1041180003FB04739A64C3F8E0208DE74FF4177328
:104128004FF47A5203FB04739A64C3F8E02083E7E0
:104138004FF417734FF4FA4203FB04739A64C3F8FD
:10414800E02079E74FF417734BF6803203FB0473D2
:104158009A64C3F8E0206FE706F1C00002234246E4
:104168004946384405F04EFF0028CAD0FFBEFEE796
:1041780004580140045C014024580140245C01407B
:104188007838012400770100ACE50008B0E50008A4
:104198000068704770B5046882B015460E46C4F8CA
:1041A8005032C4E99212069AC4F85422A269012A2C
:1041B80026D0626A012A9AB211D0294604F1C000B9
:1041C800019205F0DBFF236A019A012B10D02946E2
:1041D80004F1280005F0D2FF002002B070BD04F100
:1041E800C000019206F05CF8236A019A012BEED117
:1041F800314604F1280006F053F8002002B070BDE3
:10420800226A012A9AB211D0294604F128000192A3
:1042180005F0B4FF636A019A012B10D0294604F116
:10422800C00005F0ABFF002002B070BD04F128000B
:10423800019206F035F8636A019A012BEED13146F6
:1042480004F1C00006F02CF8002002B070BD00BFD9
:1042580003681B69042B05D8044A02EB830393ED1A
:10426800000A70479FED020A704700BFBCE50008CE
:1042780000803B470368D3F858027047704700BF77
:1042880008B500F035FCBDE8084000F035BD00BFBA
:10429800064808B503680BB101F0F4FE044803684A
:1042A8001BB1BDE8084002F0E3BD08BD4041012450
:1042B800383D0124064808B503680BB101F0E2FE59
:1042C800044803681BB1BDE8084002F0D1BD08BD31
:1042D80040410124383D0124064808B503680BB164
:1042E80001F0D0FE044803681BB1BDE8084002F0A5
:1042F800BFBD08BD40410124383D0124704700BFBF
:1043080000F008BC2DE9F041CEB004464C22002153
:104318000AA80AF033F82022002102A80AF02EF891
:10432800BC2200211EA80AF029F8022003F014FA82
:104338002368012B4FF0000354D0534A0225019300
:10434800C820D16A514B21F00101D162D26A02F032
:10435800010201929A6942F440429A619B6903F40E
:1043680040430193019B494A93699B04FCD5484902
:104378000224002201268B6A04274FF0080823F044
:10438800030323438B62052316900AA818934FF45E
:1043980080331096179419941597CDF86880CDE955
:1043A8001B222122CDE91344CDE90A2303F0BEFEE6
:1043B80000B1FEE73F220323294602A8CDE90223E4
:1043C80000220823CDE9042340224023CDE9062317
:1043D80040234FF48062CDE9082304F0D5F9034661
:1043E800B8B1FEE7294A04250093F0209169264BCD
:1043F80041F440419161926902F440420092DA6AC4
:1044080042F00102DA62DB6A03F001030093009BC9
:10441800A9E720224FF4805125934FF440152B92A1
:1044280080222D931EA83093269135914FF48071E8
:10443800249234920C223394439140F22711209213
:104448001022CDF884802A971F96CDE92E34CDE925
:104458003B334FF48033CDE9224631930024469311
:104468000623CDE93E4527934FF48063094C2C93EE
:104478001E94CDE9281204F0C7FB00B1FEE703F053
:1044880091F94EB0BDE8F081000400580048025888
:10449800004402580F130F032DE9F0410D4604465E
:1044A80084B0D1E9000184E8030000F0F1FAAE79A4
:1044B8007EB36F4608F024F8FEF740FF07F06AFD68
:1044C8002B79002B4ED16B799BB1BFF34F8FBFF384
:1044D8006F8F394B0022C3F85022BFF34F8FBFF3C1
:1044E8006F8F5A6942F400325A61BFF34F8FBFF39E
:1044F8006F8F0022002339463048CDE9002307F0AA
:1045080093FF2E4807F0F2FF07F01CFA04B0BDE84D
:10451800F08120466F46FFF7F5FE012400F09AFB74
:104528004FF040534FF4807838460193244BADF850
:104538000040CDE9023800F0ABFB19224FF04043B0
:1045480038468DF80F40ADF80D808DF801408DF894
:104558000A608DF80820019300F09AFB042000F00F
:1045680087FBA7E7144C0023C4F88430BFF34F8FB0
:10457800D4F8803043F6E07EC3F3C906C3F34E3364
:104588004FEA431C0CEA0E00334640EA8372013BB3
:10459800C4F860225A1CF8D1ACF1200C1CF1200F91
:1045A800F0D1BFF34F8F636943F480336361BFF386
:1045B8004F8FBFF36F8F86E700ED00E0303D012499
:1045C8000E00010304F010BA1C4B9B6803F17842FB
:1045D800B2F5003F25D3B3F5803F20D303F1604205
:1045E800B2F5003F1FD303F15C42B2F5002F1CD394
:1045F80003F17042B2F5902F19D303F14842B2F596
:10460800803F16D303F18042B2F1806F13D303F1D8
:10461800E043B3F5000F2CBF0820072070470120A6
:10462800704700207047022070470320704704201D
:104638007047052070470620704700BF00ED00E076
:1046480003480023034A0449036009F079BA00BF0C
:10465800303D0124000000248542000810B4204C9D
:104668000022204B83B0D4F888101F4841F4700111
:10467800C4F8881019681D4C41F0010119601A61CD
:10468800196808401A4918609A61DA611A629A62D0
:10469800DA621A635A639A63DA631A645A641868A6
:1046A80020F4802018601A66D3F8DC2042F06042BB
:1046B800C3F8DC20D3F8DC300193019B2368194050
:1046C800B1F1005F03D20B4B0122C3F80821044B60
:1046D8004FF000629A6003B05DF8044B704700BF6A
:1046E80000ED00E0004402587FEDF6EA0010005C9F
:1046F8000000FFFF0080005100F57171D0F804043C
:1047080006F008BDC1EBC10300EB8303D0F8040435
:10471800D3F8082206F02CBDC1EBC10300EB8303DC
:10472800D0F804049A6C06F061BD00BFD0F8040408
:1047380006F000BEC16810B5044619B1022900D0C0
:10474800FEE70121D4F8040406F0DEFDD4F80404E1
:10475800BDE8104006F0B0BD10B50446D0F804041A
:1047680006F0D6FD2268D2F8003E43F00103C2F8F5
:10477800003E236A23B1034A136943F00603136119
:1047880010BD00BF00ED00E0D0F8040406F0CABD7B
:10479800D0F8040406F0DEBDD0F8040406F0D8BD55
:1047A800D0F8040406F0D8BDD0F8040406F0D6BD4D
:1047B8009446D0F898021A4608B5634602F0BCFE43
:1047C800032802D8024B185C08BD022008BD00BFB0
:1047D800E0E50008D0F8980208B502F03BFF03288E
:1047E80002D8024B185C08BD022008BDE0E50008AD
:1047F800D0F8980208B502F071FF032802D8024BDE
:10480800185C08BD022008BDE0E500080A06D0F8DB
:10481800983206D4C1EBC10103EB810191F8FE0186
:10482800704701F07F01C1EBC10103EB810191F8F1
:104838003E007047D0F8980208B502F067FE0328DA
:1048480002D8024B185C08BD022008BDE0E500084C
:10485800D0F8980208B502F0D5FE032802D8024B1A
:10486800185C08BD022008BDE0E50008D0F89802F1
:1048780008B502F09FFE032802D8024B185C08BD59
:10488800022008BDE0E50008D0F8C00207F014B81F
:10489800D0F8C00207F028B8D0F8C00207F030B846
:1048A800704700BFD0F8C00207F016B8D0F8C002B1
:1048B80007F016B8D0F8D00308B501F0A3FF032815
:1048C80002D8024B185C08BD022008BDE4E50008C8
:1048D800024B027853F82200704700BF08E6000830
:1048E800024B427833F81200704700BFE8E5000831
:1048F8008CB00A2814D8DFE800F01523313F4D5B4F
:104908006977859306004D4BD3F8E02042F4806226
:10491800C3F8E020D3F8E03003F480630B930B9BDB
:104928000CB07047454BD3F8E02042F00102C3F8C1
:10493800E020D3F8E03003F001030193019BEFE797
:104948003E4BD3F8E02042F00202C3F8E020D3F84F
:10495800E03003F002030293029BE1E7374BD3F800
:10496800E02042F00402C3F8E020D3F8E03003F07E
:1049780004030393039BD3E7304BD3F8E02042F0C2
:104988000802C3F8E020D3F8E03003F008030493EA
:10499800049BC5E7294BD3F8E02042F01002C3F886
:1049A800E020D3F8E03003F010030593059BB7E748
:1049B800224BD3F8E02042F02002C3F8E020D3F8DD
:1049C800E03003F020030693069BA9E71B4BD3F8BE
:1049D800E02042F04002C3F8E020D3F8E03003F0D2
:1049E80040030793079B9BE7144BD3F8E02042F062
:1049F8008002C3F8E020D3F8E03003F08003089386
:104A0800089B8DE70D4BD3F8E02042F48072C3F881
:104A1800E020D3F8E03003F480730993099B7FE723
:104A2800064BD3F8E02042F40072C3F8E020D3F834
:104A3800E03003F400730A930A9B71E700440258BC
:104A4800704700BF0F4B1B780BB90120704710B59A
:104A580004464FF47A700C4AB0FBF3F31068B0FBCD
:104A6800F3F000F0E1F80F2C00D808B1012010BDD8
:104A7800002221464FF0FF3000F076F8034B00206B
:104A88001C6010BD540000244C0000245800002471
:104A980038B50320124D00F055F8124C03F0D4FD40
:104AA800114A12499369C3F30323CB5C03F01F0334
:104AB80020FA03F30F202B60926902F00F028A5C40
:104AC80002F01F02D3402360FFF7BCFF10B101249E
:104AD800204638BD0446FFF7B3FF204638BD00BF67
:104AE8004C0000245000002400440258D0E500087F
:104AF800034A044B11681B780B441360704700BFCE
:104B08000444012454000024014B1868704700BF76
:104B18000444012438B50446FFF7F6FF0546631C34
:104B280002D0044B1B781C44FFF7EEFF431BA34243
:104B3800FAD338BD54000024014B1868000C7047A4
:104B48000010005C06494FF6FF0C0002054BCA68CE
:104B580000F4E06002EA0C0210430343CB607047A4
:104B680000ED00E00000FA051B4BDB68C3F30223ED
:104B780000B5C3F1070E03F1040CBEF1040F28BF02
:104B88004FF0040EBCF1060F1AD9033B4FF0FF3C5F
:104B98000CFA03FC22EA0C024FF0FF3C00280CFA46
:104BA8000EFC21EA0C0101FA03F141EA02010ADBD9
:104BB80009010A4BC9B2034483F800135DF804FBEA
:104BC80000221346E8E700F00F000901044BC9B2C0
:104BD800034419765DF804FB00ED00E000E100E015
:104BE800FCEC00E0002807DB00F01F01012340096E
:104BF800024A8B4042F82030704700BF00E100E0D5
:104C080000280DDB4309012200F01F00054920336D
:104C180002FA00F041F82300BFF34F8FBFF36F8F04
:104C2800704700BF00E100E0431EB3F1807F0CD263
:104C38004FF0E022002006494FF0F00C53610723A3
:104C480081F823C09061136170470120704700BF4D
:104C580000ED00E0BFF35F8F044B00215A6A22F495
:104C680080325A62C3F89410704700BF00ED00E02C
:104C7800064B40F00100C3F894005A6A42F48032AF
:104C88005A62BFF34F8FBFF36F8F704700ED00E09C
:104C9800174A4378C2F89830017821B3436800B5C1
:104CA800C2F89C30C37A90F80CC01B0690F80FE04D
:104CB80043EA0C7390F80AC00B43817B43EACC4368
:104CC80090F80DC043EA8C4390F809C043EA414389
:104CD800017A43EA0E4343EA0C2343EA4103C2F84C
:104CE800A0305DF804FBC2F89C10C2F8A010704711
:104CF80000ED00E0704700BF08B5FFF7FBFF08BDF7
:104D08000268344B344930B4344D354CAA4218BF8C
:104D18009A420CBF012300238A4208BF43F00103D3
:104D28003031A24208BF43F0010330348A4208BF41
:104D380043F001033031A24208BF43F0010330348D
:104D48008A4208BF43F0010301F55C71A24208BF23
:104D580043F0010304F55C748A4208BF43F0010381
:104D68003031A24208BF43F0010330348A4208BF01
:104D780043F001033031A24208BF43F0010330344D
:104D88008A4208BF43F001033031A24208BF43F012
:104D980001038A4208BF43F0010313B9114B9A4239
:104DA80013D1D3B21049114C103BA1FB03515F2B17
:104DB8000F4BC1F3021103EA0203615C88BF04339D
:104DC800C1658365184630BC704722F0FF038365D0
:104DD800F8E700BF100002404000024028000240EF
:104DE80058000240B8040240ABAAAAAA38E6000854
:104DF80000FCFFFF0368294A294930B4294D2A4C91
:104E0800AB4218BF93420CBF012200228B4208BF5D
:104E180042F001022831A34208BF42F001022834BF
:104E28008B4208BF42F001022831A34208BF42F07A
:104E380001028B4208BF42F0010212B91B4A934299
:104E480013D1DBB21A4C1B4A0121083B1A4DA4FBB3
:104E58000343456602EB1312C3F30413920001FAED
:104E680003F30266836630BC7047DAB21349144C08
:104E78001944103AA829A4FB02234FEA131300D8B7
:104E88000833104A03F01F0501210F4C1A44A940AA
:104E98004466920081660266E5E700BF085402583E
:104EA800305402581C54025844540258945402581E
:104EB800CDCCCCCC0096001680580258F0FBFDBF34
:104EC800ABAAAAAA008200108008024070B5044666
:104ED800FFF71AFE002C00F0C68023680546954AA5
:104EE800934248D01832934245D0303292498B428F
:104EF80018BF934201F130010CBF012200228B42FE
:104F080008BF42F0010218318B4208BF42F001028B
:104F180018318B4208BF42F0010218318B4208BF9A
:104F280042F0010201F556718B4208BF42F00102BE
:104F380018318B4208BF42F0010218318B4208BF7A
:104F480042F0010218318B4208BF42F001021831C9
:104F58008B4208BF42F0010218318B4208BF42F071
:104F6800010218318B4208BF42F001021AB9734A94
:104F7800934240F0F5800222002184F8352084F81D
:104F880034101A6822F001021A6005E0FFF7BCFD30
:104F9800431B052B40D823681A68D107F6D4D4E9F7
:104FA800022521692A43A0691D680A4361690A43E9
:104FB800E16902430A4362492940256A2A430A43B0
:104FC800616A04292FD01A605A6922F00702114336
:104FD80059612046FFF794FEE26D3F2302F01F025D
:104FE800934083602046FFF705FFA368802B3CD0E1
:104FF8006368A06EDAB2013BD4E91851072B2A6026
:10500800486026D90023C4E91B33636700200123C5
:10501800606584F8353070BD202203230120626565
:1050280084F8353070BDD4E90B5129430A431A601E
:105038005969A26A21F00701114341F00401002DCA
:10504800C6D000284FD1012A6ED032F00202BFD15B
:1050580051E0501E072810D9626FD4E91B31002097
:1050680018604A60D2E7012070BD0023A16ED4E920
:105078001802636003605160C4E72168314B324D08
:10508800A94218BF994205F114050CBF012300235A
:10509800A94208BF43F001031435A94208BF43F0F1
:1050A80001031435A94208BF43F001031435A9428E
:1050B80008BF43F001031435A94208BF43F00103B8
:1050C8003BB9224B994204D0214B224913449B00FF
:1050D80003E0214B214913449B0001228240C4E98B
:1050E8001B316267BBE7B0F5005F0ED0022A05D915
:1050F800032A7FF46DAFEA017FF56AAF01234022EE
:105108001846626584F8353070BD032A3FF660AFF3
:1051180001A050F822F000BF05510008FF50000818
:105128000551000831510008B5F1C07F7FF450AF38
:10513800E4E700BF1000024040000240B80402400B
:105148003F8010FE085402581C54025894540258C8
:105158003F820010400902403F960016405902580D
:10516800324A33483349834218BF934200F128003A
:105178000CBF012200228B4208BF42F001022831F5
:10518800834208BF42F0010228308B4208BF42F038
:1051980001022831834208BF42F001028B4208BF56
:1051A80042F0010212B9244A934238D10222002166
:1051B800224D84F8341084F835201A681540A26806
:1051C800402A2AD0802A0CBF4FF480400846266A1D
:1051D800D4E90312D20842EAD102616942EAD10253
:1051E800A16942EAD102E16942EAD102144942EADC
:1051F800161219442A4302431248A0FB0101204613
:105208001A600B099B00E365FFF77AFDE26D012345
:1052180002F01F0293404360E4E61020D7E74022E3
:1052280003230120626584F8353070BD08540258A4
:105238001C54025830540258945402580F00FEFF70
:10524800F8ABFDA7CDCCCCCC002800F0BC808446C0
:1052580090F83400012800F0B88001202DE9F041D1
:105268009CF835408CF83400844208D000224FF472
:1052780000638CF83420CCF85430BDE8F08102206B
:10528800DCF800507A4C8CF835000020794ECCF8C8
:1052980054007948854218BFA54200F118000CBF98
:1052A80001240024854208BF44F0010418308542D7
:1052B80008BF44F001041830854208BF44F00104D7
:1052C8001830854208BF44F0010400F55670854245
:1052D80008BF44F001041830854208BF44F00104B7
:1052E8001830854208BF44F001041830854208BFD1
:1052F80044F001041830854208BF44F00104183016
:10530800854208BF44F001041830854208BF44F0C4
:1053180001041830854208BF44F00104A0F59560E7
:10532800B54218BF8542DCF86C600CBF0120002034
:1053380054EA0008286820F001002860DCF86400BE
:10534800DCF86840DCF85870446040D016B1DCE9FD
:105358001C044460DCF85C004FF03F0E00F01F00B6
:105368000EFA00F0B860286820F4802028606B608E
:10537800DCF80830402B23D0A960EA602B6823F0C2
:105388001E0343F016032B60DCF840301BB12B687A
:1053980043F008032B60DCF860301A68D20303D5A9
:1053A8001A6842F480721A601EB1336843F480733D
:1053B80033602B68002043F001032B60BDE8F081C7
:1053C800AA60E960DAE7012070470220704716B149
:1053D800DCE91C0444602948DFF8A8E0754518BFDB
:1053E80085420EF1140E0CBF01200020754508BF40
:1053F80040F001000EF1140E754508BF40F00100A1
:105408000EF1140E754508BF40F001000EF1140EA0
:10541800754508BF40F001000EF1140E754508BF30
:1054280040F0010010B9164885420ED1DCF85C0046
:1054380000F01F0E012000FA0EF078606B60DCF8B7
:105448000830402B10D0A960EA602B6823F00E03C7
:1054580043F00A032B60DCF84030002B9BD02B680C
:1054680043F004032B6096E7AA60E960EDE700BF0C
:1054780040000240280002405800024008540258E8
:10548800945402581C54025800285FD038B590F83C
:1054980035200346022A55D10168444A914248D032
:1054A8001832914245D03032414C4248A14218BF8F
:1054B800914204F148040CBF01220022814208BF36
:1054C80042F001023030A14208BF42F001023034FC
:1054D800814208BF42F0010200F55C70A14208BF9A
:1054E80042F0010204F55C74814208BF42F00102F7
:1054F8003030A14208BF42F001023034814208BF77
:1055080042F001023030A14208BF42F001023034BB
:10551800814208BF42F001023030A14208BF42F088
:105528000102814208BF42F0010212B9224A9142A7
:105538000ED10422002083F835200B6823F00103E4
:105548000B6038BD802201205A6538BD01207047A4
:105558000A681C6E22F00E02D86D9D6D0A6000F07C
:105568001F000A6822F001020A60012221688240B5
:1055780021F4807121606A60DA6ED3E919104860FD
:1055880032B11168D3E91C0421F4807111604460C0
:10559800002401211A6D83F8344083F835101AB1BC
:1055A80018469047204638BD104638BD10000240C6
:1055B8004000024070000240B80402402DE9F04368
:1055C80000229C4B83B09C4E1D6881460192036863
:1055D8009A4A846D934218BFB342276808BF0126D0
:1055E800216818BF002645D018329548834218BF55
:1055F800934200F118000CBF01220022834208BF29
:1056080042F001021830834208BF42F0010218300C
:10561800834208BF42F001021830834208BF42F0BB
:10562800010200F55670834208BF42F001021830AB
:10563800834208BF42F001021830834208BF42F09B
:1056480001021830834208BF42F001021830834239
:1056580008BF42F001021830834208BF42F001023D
:105668001830834208BF42F001021AB9754A9342C2
:1056780040F05082D9F85C10082201F01F0C02FAA1
:105688000CF2174240F0888127FA0CF2D2070CD5A9
:105698005A69100609D5012202FA0CF2A260D9F85B
:1056A800542042F00202C9F854204FF0040E0EFABA
:1056B8000CF038425BD0002E4FD1634ADFF880816E
:1056C800434518BF934208F118080CBF0122002275
:1056D800434508BF42F0010208F11808434508BFD6
:1056E80042F0010208F11808434508BF42F00102E0
:1056F80008F11808434508BF42F0010208F556783A
:10570800434508BF42F0010208F11808434508BFA5
:1057180042F0010208F11808434508BF42F00102AF
:1057280008F11808434508BF42F0010208F11808BB
:10573800434508BF42F0010208F11808434508BF75
:1057480042F0010208F11808434508BF42F001027F
:105758001AB93C4A934240F019821A68920706D552
:10576800A060D9F8542042F00402C9F8542010224D
:1057780002FA0CFC1CEA070F6CD0002E45D1324A05
:105788002F4EB34218BF934206F118060CBF0122F0
:105798000022B34208BF42F001021836B34208BFE4
:1057A80042F001021836B34208BF42F0010218362F
:1057B800B34208BF42F0010206F55676B34208BF6D
:1057C80042F001021836B34208BF42F0010218360F
:1057D800B34208BF42F001021836B34208BF42F094
:1057E80001021836B34208BF42F001021836B3422C
:1057F80008BF42F001021836B34208BF42F0010266
:105808001AB9104A934240F0C9811A68100721D585
:10581800C4F808C01A68560300F14C811A68D2050A
:1058280003D41A6822F008021A60D9F840308BB104
:105838000CE000BF4C000024100002402800024089
:1058480058000240B80402404000024048469847C9
:10585800D9F85C1001F01F0120268E403E4268D026
:10586800D9F80020A54BA64FBA4218BF9A4207F1B3
:1058780018070CBF01230023BA4208BF43F00103F5
:105888001837BA4208BF43F001031837BA4208BFB5
:1058980043F001031837BA4208BF43F00103183731
:1058A800BA4208BF43F001031837BA4208BF43F0B1
:1058B800010307F55677BA4208BF43F001031837CA
:1058C800BA4208BF43F001031837BA4208BF43F091
:1058D80001031837BA4208BF43F001031837BA4228
:1058E80008BF43F001031837BA4208BF43F0010369
:1058F8001837BA4208BF43F001031BB9814B9A42DB
:1059080040F062811368DB0613D5A66099F835303C
:10591800042B136800F0AE8013F4802F136800F096
:10592800D3801C0340F1DE80D9F83C300BB14846E7
:105938009847D9F85430002B00F0B980D9F8543082
:10594800D8071FD5D9F80020042189F83510136825
:1059580023F0010313606C4BA3FB0535AD0A02E08D
:105968001368D90704D5019B0133AB420193F7D9DA
:10597800002389F834301368DB074CBF0323012365
:1059880089F83530D9F84C30002B00F09080484623
:1059980003B0BDE8F0431847186840070AD51868EF
:1059A80020F004001860A260D9F8542042F00102E7
:1059B800C9F8542027FA0CF2D2077FF576AE534A7D
:1059C8005348834218BF934200F130000CBF0122B4
:1059D8000022834208BF42F001021830834208BF08
:1059E80042F001021830834208BF42F00102183029
:1059F800834208BF42F0010200F55670834208BF97
:105A080042F001021830834208BF42F00102183008
:105A1800834208BF42F001021830834208BF42F0B7
:105A280001021830834208BF42F001021830834255
:105A380008BF42F001021830834208BF42F0010259
:105A48001830834208BF42F00102002A7FF420AEDA
:105A5800002E7FF41DAE1A68042202FA0CF23A42B4
:105A680040F09480102202FA0CFC17EA0C0F3FF465
:105A7800F1AE84E623F016031360536923F0800324
:105A88005361D9F840309BB3136823F008031360BF
:105A98003F230025012203FA01F1D9F85030A16013
:105AA80089F8345089F83520002B7FF470AF03B0A3
:105AB800BDE8F0831B6818037FF5B7AED9F8483006
:105AC800002B7FF4C3AEC5E613F480737FF42CAFCC
